{
  "abi": [
    {
      "type": "constructor",
      "inputs": [
        {
          "name": "name",
          "type": "string",
          "internalType": "string"
        },
        {
          "name": "tokenAddresses",
          "type": "address[]",
          "internalType": "address[]"
        },
        {
          "name": "blocksensePriceAggregators",
          "type": "address[]",
          "internalType": "address[]"
        },
        {
          "name": "weights",
          "type": "uint256[]",
          "internalType": "uint256[]"
        },
        {
          "name": "universalRouterAddress",
          "type": "address",
          "internalType": "address"
        },
        {
          "name": "permit2Address",
          "type": "address",
          "internalType": "address"
        },
        {
          "name": "usdcAddress",
          "type": "address",
          "internalType": "address"
        },
        {
          "name": "ethAddress",
          "type": "address",
          "internalType": "address"
        },
        {
          "name": "blocksensePriceAggregatorAddress",
          "type": "address",
          "internalType": "address"
        }
      ],
      "stateMutability": "nonpayable"
    },
    {
      "type": "fallback",
      "stateMutability": "payable"
    },
    {
      "type": "receive",
      "stateMutability": "payable"
    },
    {
      "type": "function",
      "name": "allowance",
      "inputs": [
        {
          "name": "owner",
          "type": "address",
          "internalType": "address"
        },
        {
          "name": "spender",
          "type": "address",
          "internalType": "address"
        }
      ],
      "outputs": [
        {
          "name": "",
          "type": "uint256",
          "internalType": "uint256"
        }
      ],
      "stateMutability": "view"
    },
    {
      "type": "function",
      "name": "approve",
      "inputs": [
        {
          "name": "spender",
          "type": "address",
          "internalType": "address"
        },
        {
          "name": "value",
          "type": "uint256",
          "internalType": "uint256"
        }
      ],
      "outputs": [
        {
          "name": "",
          "type": "bool",
          "internalType": "bool"
        }
      ],
      "stateMutability": "nonpayable"
    },
    {
      "type": "function",
      "name": "balanceOf",
      "inputs": [
        {
          "name": "account",
          "type": "address",
          "internalType": "address"
        }
      ],
      "outputs": [
        {
          "name": "",
          "type": "uint256",
          "internalType": "uint256"
        }
      ],
      "stateMutability": "view"
    },
    {
      "type": "function",
      "name": "calculateMarketCap",
      "inputs": [],
      "outputs": [
        {
          "name": "",
          "type": "uint256",
          "internalType": "uint256"
        }
      ],
      "stateMutability": "view"
    },
    {
      "type": "function",
      "name": "convertInputTo18Decimals",
      "inputs": [
        {
          "name": "amount",
          "type": "uint256",
          "internalType": "uint256"
        },
        {
          "name": "decimals",
          "type": "uint8",
          "internalType": "uint8"
        }
      ],
      "outputs": [
        {
          "name": "",
          "type": "uint256",
          "internalType": "uint256"
        }
      ],
      "stateMutability": "pure"
    },
    {
      "type": "function",
      "name": "convertInputToTokenDecimals",
      "inputs": [
        {
          "name": "amount",
          "type": "uint256",
          "internalType": "uint256"
        },
        {
          "name": "token",
          "type": "address",
          "internalType": "address"
        }
      ],
      "outputs": [
        {
          "name": "",
          "type": "uint256",
          "internalType": "uint256"
        }
      ],
      "stateMutability": "view"
    },
    {
      "type": "function",
      "name": "decimals",
      "inputs": [],
      "outputs": [
        {
          "name": "",
          "type": "uint8",
          "internalType": "uint8"
        }
      ],
      "stateMutability": "view"
    },
    {
      "type": "function",
      "name": "deposit",
      "inputs": [
        {
          "name": "amount",
          "type": "uint256",
          "internalType": "uint256"
        }
      ],
      "outputs": [],
      "stateMutability": "payable"
    },
    {
      "type": "function",
      "name": "ethPriceFeed",
      "inputs": [],
      "outputs": [
        {
          "name": "",
          "type": "address",
          "internalType": "contract IBlocksense"
        }
      ],
      "stateMutability": "view"
    },
    {
      "type": "function",
      "name": "getErc20Allowance",
      "inputs": [
        {
          "name": "tokenAddress",
          "type": "address",
          "internalType": "address"
        }
      ],
      "outputs": [
        {
          "name": "",
          "type": "uint256",
          "internalType": "uint256"
        }
      ],
      "stateMutability": "view"
    },
    {
      "type": "function",
      "name": "getErc20Balance",
      "inputs": [
        {
          "name": "tokenAddress",
          "type": "address",
          "internalType": "address"
        }
      ],
      "outputs": [
        {
          "name": "",
          "type": "uint256",
          "internalType": "uint256"
        }
      ],
      "stateMutability": "view"
    },
    {
      "type": "function",
      "name": "getLatestPrice",
      "inputs": [
        {
          "name": "priceFeed",
          "type": "address",
          "internalType": "contract IBlocksense"
        }
      ],
      "outputs": [
        {
          "name": "",
          "type": "int256",
          "internalType": "int256"
        },
        {
          "name": "",
          "type": "uint8",
          "internalType": "uint8"
        }
      ],
      "stateMutability": "view"
    },
    {
      "type": "function",
      "name": "getNAV",
      "inputs": [],
      "outputs": [
        {
          "name": "",
          "type": "uint256",
          "internalType": "uint256"
        }
      ],
      "stateMutability": "view"
    },
    {
      "type": "function",
      "name": "getNumberOfInvestors",
      "inputs": [],
      "outputs": [
        {
          "name": "",
          "type": "uint256",
          "internalType": "uint256"
        }
      ],
      "stateMutability": "view"
    },
    {
      "type": "function",
      "name": "getTokenDistributionCount",
      "inputs": [],
      "outputs": [
        {
          "name": "",
          "type": "uint256",
          "internalType": "uint256"
        }
      ],
      "stateMutability": "view"
    },
    {
      "type": "function",
      "name": "getTokenDistributionData",
      "inputs": [
        {
          "name": "index",
          "type": "uint256",
          "internalType": "uint256"
        }
      ],
      "outputs": [
        {
          "name": "",
          "type": "address",
          "internalType": "address"
        },
        {
          "name": "",
          "type": "uint256",
          "internalType": "uint256"
        }
      ],
      "stateMutability": "view"
    },
    {
      "type": "function",
      "name": "name",
      "inputs": [],
      "outputs": [
        {
          "name": "",
          "type": "string",
          "internalType": "string"
        }
      ],
      "stateMutability": "view"
    },
    {
      "type": "function",
      "name": "owner",
      "inputs": [],
      "outputs": [
        {
          "name": "",
          "type": "address",
          "internalType": "address"
        }
      ],
      "stateMutability": "view"
    },
    {
      "type": "function",
      "name": "permit2",
      "inputs": [],
      "outputs": [
        {
          "name": "",
          "type": "address",
          "internalType": "contract IPermit2"
        }
      ],
      "stateMutability": "view"
    },
    {
      "type": "function",
      "name": "renounceOwnership",
      "inputs": [],
      "outputs": [],
      "stateMutability": "nonpayable"
    },
    {
      "type": "function",
      "name": "router",
      "inputs": [],
      "outputs": [
        {
          "name": "",
          "type": "address",
          "internalType": "contract UniversalRouter"
        }
      ],
      "stateMutability": "view"
    },
    {
      "type": "function",
      "name": "swapExactInputSingle",
      "inputs": [
        {
          "name": "token0",
          "type": "address",
          "internalType": "address"
        },
        {
          "name": "token1",
          "type": "address",
          "internalType": "address"
        },
        {
          "name": "fee",
          "type": "uint24",
          "internalType": "uint24"
        },
        {
          "name": "amountIn",
          "type": "uint128",
          "internalType": "uint128"
        },
        {
          "name": "minAmountOut",
          "type": "uint128",
          "internalType": "uint128"
        },
        {
          "name": "_zeroForOne",
          "type": "bool",
          "internalType": "bool"
        }
      ],
      "outputs": [
        {
          "name": "amountOut",
          "type": "uint256",
          "internalType": "uint256"
        }
      ],
      "stateMutability": "nonpayable"
    },
    {
      "type": "function",
      "name": "symbol",
      "inputs": [],
      "outputs": [
        {
          "name": "",
          "type": "string",
          "internalType": "string"
        }
      ],
      "stateMutability": "view"
    },
    {
      "type": "function",
      "name": "tokens",
      "inputs": [
        {
          "name": "",
          "type": "uint256",
          "internalType": "uint256"
        }
      ],
      "outputs": [
        {
          "name": "tokenAddress",
          "type": "address",
          "internalType": "address"
        },
        {
          "name": "priceFeed",
          "type": "address",
          "internalType": "contract IBlocksense"
        },
        {
          "name": "weight",
          "type": "uint256",
          "internalType": "uint256"
        }
      ],
      "stateMutability": "view"
    },
    {
      "type": "function",
      "name": "totalSupply",
      "inputs": [],
      "outputs": [
        {
          "name": "",
          "type": "uint256",
          "internalType": "uint256"
        }
      ],
      "stateMutability": "view"
    },
    {
      "type": "function",
      "name": "transfer",
      "inputs": [
        {
          "name": "to",
          "type": "address",
          "internalType": "address"
        },
        {
          "name": "value",
          "type": "uint256",
          "internalType": "uint256"
        }
      ],
      "outputs": [
        {
          "name": "",
          "type": "bool",
          "internalType": "bool"
        }
      ],
      "stateMutability": "nonpayable"
    },
    {
      "type": "function",
      "name": "transferFrom",
      "inputs": [
        {
          "name": "from",
          "type": "address",
          "internalType": "address"
        },
        {
          "name": "to",
          "type": "address",
          "internalType": "address"
        },
        {
          "name": "value",
          "type": "uint256",
          "internalType": "uint256"
        }
      ],
      "outputs": [
        {
          "name": "",
          "type": "bool",
          "internalType": "bool"
        }
      ],
      "stateMutability": "nonpayable"
    },
    {
      "type": "function",
      "name": "transferOwnership",
      "inputs": [
        {
          "name": "newOwner",
          "type": "address",
          "internalType": "address"
        }
      ],
      "outputs": [],
      "stateMutability": "nonpayable"
    },
    {
      "type": "function",
      "name": "updateAssetsAndWeights",
      "inputs": [
        {
          "name": "tokenAddresses",
          "type": "address[]",
          "internalType": "address[]"
        },
        {
          "name": "blocksensePriceAggregators",
          "type": "address[]",
          "internalType": "address[]"
        },
        {
          "name": "weights",
          "type": "uint256[]",
          "internalType": "uint256[]"
        }
      ],
      "outputs": [],
      "stateMutability": "nonpayable"
    },
    {
      "type": "function",
      "name": "withdraw",
      "inputs": [
        {
          "name": "usdToWithdraw",
          "type": "uint256",
          "internalType": "uint256"
        }
      ],
      "outputs": [],
      "stateMutability": "payable"
    },
    {
      "type": "event",
      "name": "Approval",
      "inputs": [
        {
          "name": "owner",
          "type": "address",
          "indexed": true,
          "internalType": "address"
        },
        {
          "name": "spender",
          "type": "address",
          "indexed": true,
          "internalType": "address"
        },
        {
          "name": "value",
          "type": "uint256",
          "indexed": false,
          "internalType": "uint256"
        }
      ],
      "anonymous": false
    },
    {
      "type": "event",
      "name": "OwnershipTransferred",
      "inputs": [
        {
          "name": "previousOwner",
          "type": "address",
          "indexed": true,
          "internalType": "address"
        },
        {
          "name": "newOwner",
          "type": "address",
          "indexed": true,
          "internalType": "address"
        }
      ],
      "anonymous": false
    },
    {
      "type": "event",
      "name": "Transfer",
      "inputs": [
        {
          "name": "from",
          "type": "address",
          "indexed": true,
          "internalType": "address"
        },
        {
          "name": "to",
          "type": "address",
          "indexed": true,
          "internalType": "address"
        },
        {
          "name": "value",
          "type": "uint256",
          "indexed": false,
          "internalType": "uint256"
        }
      ],
      "anonymous": false
    },
    {
      "type": "error",
      "name": "ERC20InsufficientAllowance",
      "inputs": [
        {
          "name": "spender",
          "type": "address",
          "internalType": "address"
        },
        {
          "name": "allowance",
          "type": "uint256",
          "internalType": "uint256"
        },
        {
          "name": "needed",
          "type": "uint256",
          "internalType": "uint256"
        }
      ]
    },
    {
      "type": "error",
      "name": "ERC20InsufficientBalance",
      "inputs": [
        {
          "name": "sender",
          "type": "address",
          "internalType": "address"
        },
        {
          "name": "balance",
          "type": "uint256",
          "internalType": "uint256"
        },
        {
          "name": "needed",
          "type": "uint256",
          "internalType": "uint256"
        }
      ]
    },
    {
      "type": "error",
      "name": "ERC20InvalidApprover",
      "inputs": [
        {
          "name": "approver",
          "type": "address",
          "internalType": "address"
        }
      ]
    },
    {
      "type": "error",
      "name": "ERC20InvalidReceiver",
      "inputs": [
        {
          "name": "receiver",
          "type": "address",
          "internalType": "address"
        }
      ]
    },
    {
      "type": "error",
      "name": "ERC20InvalidSender",
      "inputs": [
        {
          "name": "sender",
          "type": "address",
          "internalType": "address"
        }
      ]
    },
    {
      "type": "error",
      "name": "ERC20InvalidSpender",
      "inputs": [
        {
          "name": "spender",
          "type": "address",
          "internalType": "address"
        }
      ]
    },
    {
      "type": "error",
      "name": "OwnableInvalidOwner",
      "inputs": [
        {
          "name": "owner",
          "type": "address",
          "internalType": "address"
        }
      ]
    },
    {
      "type": "error",
      "name": "OwnableUnauthorizedAccount",
      "inputs": [
        {
          "name": "account",
          "type": "address",
          "internalType": "address"
        }
      ]
    }
  ],
  "bytecode": {
    "object": "0x6101606040523461010257610024610015610476565b97969096959195949294610a04565b61002c610107565b61541a610fe3823960805181505060a05181505060c051818181613168015281816132ec015281816133ac0152818161344901528181613478015281816144910152818161452001528181614660015281816146f40152614725015260e051818181613d3601528181613d8a01528181613f410152613f8a015261010051818181611079015281816122e801528181612675015281816128210152614caa01526101205181818161040b015281816125ce015281816126310152818161277d01526127e001526101405181610e27015261541a90f35b61010d565b60405190565b5f80fd5b601f801991011690565b634e487b7160e01b5f52604160045260245ffd5b9061013990610111565b810190811060018060401b0382111761015157604052565b61011b565b90610169610162610107565b928361012f565b565b5f80fd5b5f80fd5b5f80fd5b5f80fd5b60018060401b03811161019757610193602091610111565b0190565b61011b565b90825f9392825e0152565b909291926101bc6101b78261017b565b610156565b938185526020850190828401116101d8576101d69261019c565b565b610177565b9080601f830112156101fb578160206101f8935191016101a7565b90565b610173565b60018060401b0381116102165760208091020190565b61011b565b5f80fd5b60018060a01b031690565b6102339061021f565b90565b61023f8161022a565b0361024657565b5f80fd5b9050519061025782610236565b565b9092919261026e61026982610200565b610156565b93818552602080860192028301928184116102ab57915b8383106102925750505050565b602080916102a0848661024a565b815201920191610285565b61021b565b9080601f830112156102ce578160206102cb93519101610259565b90565b610173565b60018060401b0381116102e95760208091020190565b61011b565b90565b6102fa816102ee565b0361030157565b5f80fd5b90505190610312826102f1565b565b90929192610329610324826102d3565b610156565b938185526020808601920283019281841161036657915b83831061034d5750505050565b6020809161035b8486610305565b815201920191610340565b61021b565b9080601f830112156103895781602061038693519101610314565b90565b610173565b909161012082840312610471575f82015160018060401b03811161046c57836103b89184016101dd565b92602083015160018060401b03811161046757816103d79185016102b0565b92604081015160018060401b03811161046257826103f69183016102b0565b92606082015160018060401b03811161045d578361041591840161036b565b92610423816080850161024a565b926104318260a0830161024a565b9261045a6104428460c0850161024a565b936104508160e0860161024a565b936101000161024a565b90565b61016f565b61016f565b61016f565b61016f565b61016b565b6104946163fd8038038061048981610156565b92833981019061038e565b909192939495969798565b5f1b90565b906104b05f199161049f565b9181191691161790565b90565b90565b6104d46104cf6104d9926104ba565b6104bd565b6102ee565b90565b90565b906104f46104ef6104fb926104c0565b6104dc565b82546104a4565b9055565b5190565b5190565b60209181520190565b5f7f417272617973206d757374206265206f6620657175616c206c656e6774680000910152565b610544601e602092610507565b61054d81610510565b0190565b6105669060208101905f818303910152610537565b90565b1561057057565b610578610107565b62461bcd60e51b81528061058e60048201610551565b0390fd5b600161059e91016102ee565b90565b634e487b7160e01b5f52603260045260245ffd5b906105bf82610503565b8110156105d0576020809102010190565b6105a1565b6105df90516102ee565b90565b5f7f576569676874206d75737420626520706f736974697665000000000000000000910152565b6106166017602092610507565b61061f816105e2565b0190565b6106389060208101905f818303910152610609565b90565b1561064257565b61064a610107565b62461bcd60e51b81528061066060048201610623565b0390fd5b634e487b7160e01b5f52601160045260245ffd5b61068761068d919392936102ee565b926102ee565b820180921161069857565b610664565b90565b6106b46106af6106b99261069d565b6104bd565b6102ee565b90565b6106c660646106a0565b90565b5f7f546f74616c2077656967687473206d7573742073756d20746f20313030000000910152565b6106fd601d602092610507565b610706816106c9565b0190565b61071f9060208101905f8183039101526106f0565b90565b1561072957565b610731610107565b62461bcd60e51b8152806107476004820161070a565b0390fd5b90565b90610758826104ff565b811015610769576020809102010190565b6105a1565b610778905161022a565b90565b61078f61078a6107949261021f565b6104bd565b61021f565b90565b6107a09061077b565b90565b6107ac90610797565b90565b6107b96060610156565b90565b906107c69061022a565b9052565b6107d39061022a565b90565b906107e0906107ca565b9052565b906107ee906102ee565b9052565b5f5260205f2090565b5490565b610808816107fb565b8210156108225761081a6003916107f2565b910201905f90565b6105a1565b634e487b7160e01b5f525f60045260245ffd5b9061084b60018060a01b039161049f565b9181191691161790565b61085e9061077b565b90565b61086a90610855565b90565b90565b9061088561088061088c92610861565b61086d565b825461083a565b9055565b61089a90516107ca565b90565b6108a690610797565b90565b90565b906108c16108bc6108c89261089d565b6108a9565b825461083a565b9055565b6108e06108db6108e5926102ee565b6104bd565b6102ee565b90565b906108fd6108f8610904926108cc565b6104dc565b82546104a4565b9055565b9061094c604060026109529461092b5f82016109255f880161076e565b90610870565b6109446001820161093e60208801610890565b906108ac565b0192016105d5565b906108e8565b565b91906109655761096391610908565b565b610827565b1b90565b908154916801000000000000000083101561099e578261099691600161099c950181556107ff565b90610954565b565b61011b565b6109ac9061077b565b90565b6109b8906109a3565b90565b6109c49061021f565b90565b6109d190516109bb565b90565b6109dd9061077b565b90565b6109e9906109d4565b90565b6109f59061077b565b90565b610a01906109ec565b90565b610a1a9099929496989193979933908091610ca9565b610a255f60076104df565b610a2e836104ff565b610a48610a42610a3d876104ff565b6102ee565b916102ee565b1480610c30575b610a5890610569565b610a615f6104c0565b98610a6b5f6104c0565b995b8a610a88610a82610a7d8c610503565b6102ee565b916102ee565b1015610ae857610adc610ae291610ad6610ad18e610acb610ab38f610aae9084906105b5565b6105d5565b610ac5610abf5f6104c0565b916102ee565b1161063b565b8d6105b5565b6105d5565b90610678565b9a610592565b99610a6d565b610b159193959896999294979a50610b0f610b09610b046106bc565b6102ee565b916102ee565b14610722565b610b1e5f6104c0565b5b80610b3a610b34610b2f89610503565b6102ee565b916102ee565b1015610bd05780610bc68989610bc18a610bb8610b9a610b95610b8d610b88610b83610b7b610b76610bcb9e610b70600661074b565b9b61074e565b61076e565b998c9061074e565b61076e565b6107a3565b9389906105b5565b6105d5565b91610baf610ba66107af565b965f88016107bc565b602086016107d6565b604084016107e4565b61096e565b610592565b610b1f565b5093509350935094610c2a94610be8610bf0926109af565b6080526109af565b60a05260c05260e052610c0b610c0660806109c7565b6109e0565b61010052610c21610c1c60a06109c7565b6109f8565b610120526107a3565b61014052565b50610a58610c3d856104ff565b610c57610c51610c4c8b610503565b6102ee565b916102ee565b149050610a4f565b610c73610c6e610c78926104ba565b6104bd565b61021f565b90565b610c8490610c5f565b90565b610c909061022a565b9052565b9190610ca7905f60208501940190610c87565b565b91610cb391610f33565b80610cce610cc8610cc35f610c7b565b61022a565b9161022a565b14610cde57610cdc90610f81565b565b610d01610cea5f610c7b565b5f918291631e4fbdf760e01b835260048301610c94565b0390fd5b5190565b634e487b7160e01b5f52602260045260245ffd5b9060016002830492168015610d3d575b6020831014610d3857565b610d09565b91607f1691610d2d565b5f5260205f2090565b601f602091010490565b91906008610d75910291610d6f5f198461096a565b9261096a565b9181191691161790565b9190610d95610d90610d9d936108cc565b6104dc565b908354610d5a565b9055565b5f90565b610db791610db1610da1565b91610d7f565b565b5b818110610dc5575050565b80610dd25f600193610da5565b01610dba565b9190601f8111610de8575b505050565b610df4610e1993610d47565b906020610e0084610d50565b83019310610e21575b610e1290610d50565b0190610db9565b5f8080610de3565b9150610e1281929050610e09565b1c90565b90610e43905f1990600802610e2f565b191690565b81610e5291610e33565b906002021790565b90610e6481610d05565b9060018060401b038211610f2257610e8682610e808554610d1d565b85610dd8565b602090601f8311600114610eba57918091610ea9935f92610eae575b5050610e48565b90555b565b90915001515f80610ea2565b601f19831691610ec985610d47565b925f5b818110610f0a57509160029391856001969410610ef0575b50505002019055610eac565b610f00910151601f841690610e33565b90555f8080610ee4565b91936020600181928787015181550195019201610ecc565b61011b565b90610f3191610e5a565b565b90610f42610f49926003610f27565b6004610f27565b565b5f1c90565b60018060a01b031690565b610f67610f6c91610f4b565b610f50565b90565b610f799054610f5b565b90565b5f0190565b610f8b6005610f6f565b610f96826005610870565b90610fca610fc47f8be0079c531659141344cd1fd0a4f28419497f9722a3daafe3b4186f6b6457e093610861565b91610861565b91610fd3610107565b80610fdd81610f7c565b0390a356fe60806040526004361015610018575b361561001657005b005b6100225f35610201565b80630126c606146101fc57806306fdde03146101f7578063095ea7b3146101f257806312261ee7146101ed57806316345f18146101e857806318160ddd146101e35780631bca2cbd146101de5780631f8a4dd4146101d957806323b872dd146101d457806327c13f86146101cf5780632e1a7d4d146101ca578063313ce567146101c55780634df630ef146101c05780634f64b2be146101bb57806355c45697146101b657806360a46673146101b157806370a08231146101ac578063715018a6146101a75780638da5cb5b146101a257806395d89b411461019d578063a9059cbb14610198578063af7665ce14610193578063b6b55f251461018e578063ca267a4414610189578063cc42010b14610184578063dd62ed3e1461017f578063e51c94fb1461017a578063eb23ed0814610175578063f2fde38b146101705763f887ea400361000e576110d5565b611044565b61100f565b610fda565b610fa4565b610f42565b610f0c565b610e93565b610e5e565b610def565b610dba565b610d85565b610d3d565b610d08565b610cb4565b610c53565b610a12565b61087f565b61081a565b6107dc565b610784565b61074e565b6106df565b6106a3565b610584565b61054e565b610486565b6103d3565b6102e9565b610249565b60e01c90565b60405190565b5f80fd5b5f80fd5b5f91031261021f57565b610211565b90565b61023090610224565b9052565b9190610247905f60208501940190610227565b565b3461027957610259366004610215565b6102756102646111cb565b61026c610207565b91829182610234565b0390f35b61020d565b5190565b60209181520190565b90825f9392825e0152565b601f801991011690565b6102bf6102c86020936102cd936102b68161027e565b93848093610282565b9586910161028b565b610296565b0190565b6102e69160208201915f8184039101526102a0565b90565b34610319576102f9366004610215565b61031561030461134b565b61030c610207565b918291826102d1565b0390f35b61020d565b5f80fd5b60018060a01b031690565b61033690610322565b90565b6103428161032d565b0361034957565b5f80fd5b9050359061035a82610339565b565b61036581610224565b0361036c57565b5f80fd5b9050359061037d8261035c565b565b91906040838203126103a7578061039b6103a4925f860161034d565b93602001610370565b90565b610211565b151590565b6103ba906103ac565b9052565b91906103d1905f602085019401906103b1565b565b34610404576104006103ef6103e936600461037f565b90611365565b6103f7610207565b918291826103be565b0390f35b61020d565b7f000000000000000000000000000000000000000000000000000000000000000090565b90565b61044461043f61044992610322565b61042d565b610322565b90565b61045590610430565b90565b6104619061044c565b90565b61046d90610458565b9052565b9190610484905f60208501940190610464565b565b346104b657610496366004610215565b6104b26104a1610409565b6104a9610207565b91829182610471565b0390f35b61020d565b6104c49061032d565b90565b6104d0816104bb565b036104d757565b5f80fd5b905035906104e8826104c7565b565b9060208282031261050357610500915f016104db565b90565b610211565b90565b61051490610508565b9052565b60ff1690565b61052790610518565b9052565b91602061054c92949361054560408201965f83019061050b565b019061051e565b565b3461057f576105666105613660046104ea565b61152e565b9061057b610572610207565b9283928361052b565b0390f35b61020d565b346105b457610594366004610215565b6105b061059f61165d565b6105a7610207565b91829182610234565b0390f35b61020d565b62ffffff1690565b6105ca816105b9565b036105d157565b5f80fd5b905035906105e2826105c1565b565b6fffffffffffffffffffffffffffffffff1690565b610602816105e4565b0361060957565b5f80fd5b9050359061061a826105f9565b565b610625816103ac565b0361062c57565b5f80fd5b9050359061063d8261061c565b565b909160c08284031261069e57610657835f840161034d565b92610665816020850161034d565b9261067382604083016105d5565b9261069b610684846060850161060d565b93610692816080860161060d565b9360a001610630565b90565b610211565b346106da576106d66106c56106b936600461063f565b94939093929192611eac565b6106cd610207565b91829182610234565b0390f35b61020d565b3461070f576106ef366004610215565b61070b6106fa612ae4565b610702610207565b91829182610234565b0390f35b61020d565b90916060828403126107495761074661072f845f850161034d565b9361073d816020860161034d565b93604001610370565b90565b610211565b3461077f5761077b61076a610764366004610714565b91612afa565b610772610207565b918291826103be565b0390f35b61020d565b346107b457610794366004610215565b6107b061079f612b79565b6107a7610207565b91829182610234565b0390f35b61020d565b906020828203126107d2576107cf915f01610370565b90565b610211565b5f0190565b6107ef6107ea3660046107b9565b61313e565b6107f7610207565b80610801816107d7565b0390f35b9190610818905f6020850194019061051e565b565b3461084a5761082a366004610215565b61084661083561357f565b61083d610207565b91829182610805565b0390f35b61020d565b6108589061032d565b9052565b91602061087d92949361087660408201965f83019061084f565b0190610227565b565b346108b0576108976108923660046107b9565b6136c9565b906108ac6108a3610207565b9283928361085c565b0390f35b61020d565b634e487b7160e01b5f52603260045260245ffd5b5490565b5f5260205f2090565b6108df816108c9565b8210156108f9576108f16003916108cd565b910201905f90565b6108b5565b5f1c90565b60018060a01b031690565b61091a61091f916108fe565b610903565b90565b61092c905461090e565b90565b60018060a01b031690565b61094661094b916108fe565b61092f565b90565b610958905461093a565b90565b90565b61096a61096f916108fe565b61095b565b90565b61097c905461095e565b90565b60069061098b826108c9565b8110156109c35761099b916108d6565b506109a75f8201610922565b916109c060026109b96001850161094e565b9301610972565b90565b5f80fd5b6109d09061044c565b90565b6109dc906109c7565b9052565b604090610a09610a1094969593966109ff60608401985f85019061084f565b60208301906109d3565b0190610227565b565b34610a4557610a41610a2d610a283660046107b9565b61097f565b610a38939193610207565b938493846109e0565b0390f35b61020d565b5f80fd5b634e487b7160e01b5f52604160045260245ffd5b90610a6c90610296565b810190811067ffffffffffffffff821117610a8657604052565b610a4e565b90610a9e610a97610207565b9283610a62565b565b67ffffffffffffffff8111610ab85760208091020190565b610a4e565b5f80fd5b90929192610ad6610ad182610aa0565b610a8b565b9381855260208086019202830192818411610b1357915b838310610afa5750505050565b60208091610b08848661034d565b815201920191610aed565b610abd565b9080601f83011215610b3657816020610b3393359101610ac1565b90565b610a4a565b67ffffffffffffffff8111610b535760208091020190565b610a4e565b90929192610b6d610b6882610b3b565b610a8b565b9381855260208086019202830192818411610baa57915b838310610b915750505050565b60208091610b9f8486610370565b815201920191610b84565b610abd565b9080601f83011215610bcd57816020610bca93359101610b58565b90565b610a4a565b91606083830312610c4e575f83013567ffffffffffffffff8111610c495782610bfc918501610b18565b92602081013567ffffffffffffffff8111610c445783610c1d918301610b18565b92604082013567ffffffffffffffff8111610c3f57610c3c9201610baf565b90565b61031e565b61031e565b61031e565b610211565b34610c8257610c6c610c66366004610bd2565b91614028565b610c74610207565b80610c7e816107d7565b0390f35b61020d565b9190604083820312610caf5780610ca3610cac925f8601610370565b9360200161034d565b90565b610211565b34610ce557610ce1610cd0610cca366004610c87565b90614075565b610cd8610207565b91829182610234565b0390f35b61020d565b90602082820312610d0357610d00915f0161034d565b90565b610211565b34610d3857610d34610d23610d1e366004610cea565b6141c4565b610d2b610207565b91829182610234565b0390f35b61020d565b34610d6b57610d4d366004610215565b610d55614207565b610d5d610207565b80610d67816107d7565b0390f35b61020d565b9190610d83905f6020850194019061084f565b565b34610db557610d95366004610215565b610db1610da0614211565b610da8610207565b91829182610d70565b0390f35b61020d565b34610dea57610dca366004610215565b610de6610dd5614227565b610ddd610207565b918291826102d1565b0390f35b61020d565b34610e2057610e1c610e0b610e0536600461037f565b9061423d565b610e13610207565b918291826103be565b0390f35b61020d565b7f000000000000000000000000000000000000000000000000000000000000000090565b9190610e5c905f602085019401906109d3565b565b34610e8e57610e6e366004610215565b610e8a610e79610e25565b610e81610207565b91829182610e49565b0390f35b61020d565b610ea6610ea13660046107b9565b614463565b610eae610207565b80610eb8816107d7565b0390f35b610ec581610518565b03610ecc57565b5f80fd5b90503590610edd82610ebc565b565b9190604083820312610f075780610efb610f04925f8601610370565b93602001610ed0565b90565b610211565b34610f3d57610f39610f28610f22366004610edf565b90614a16565b610f30610207565b91829182610234565b0390f35b61020d565b34610f7257610f6e610f5d610f58366004610cea565b614aa9565b610f65610207565b91829182610234565b0390f35b61020d565b9190604083820312610f9f5780610f93610f9c925f860161034d565b9360200161034d565b90565b610211565b34610fd557610fd1610fc0610fba366004610f77565b90614c14565b610fc8610207565b91829182610234565b0390f35b61020d565b3461100a57610fea366004610215565b611006610ff5614c3c565b610ffd610207565b91829182610234565b0390f35b61020d565b3461103f5761103b61102a611025366004610cea565b614c75565b611032610207565b91829182610234565b0390f35b61020d565b346110725761105c611057366004610cea565b614e2b565b611064610207565b8061106e816107d7565b0390f35b61020d565b7f000000000000000000000000000000000000000000000000000000000000000090565b6110a490610430565b90565b6110b09061109b565b90565b6110bc906110a7565b9052565b91906110d3905f602085019401906110b3565b565b34611105576110e5366004610215565b6111016110f0611077565b6110f8610207565b918291826110c0565b0390f35b61020d565b5f90565b90565b61112561112061112a9261110e565b61042d565b610224565b90565b90565b61114461113f6111499261112d565b61042d565b610224565b90565b634e487b7160e01b5f52601160045260245ffd5b61116f61117591939293610224565b92610224565b91611181838202610224565b92818404149015171561119057565b61114c565b634e487b7160e01b5f52601260045260245ffd5b6111b56111bb91610224565b91610224565b9081156111c6570490565b611195565b6111d361110a565b506111dc61165d565b806111ef6111e95f611111565b91610224565b146112225761121f9061121a611203612b79565b611214670de0b6b3a7640000611130565b90611160565b6111a9565b90565b5061122c5f611111565b90565b606090565b634e487b7160e01b5f52602260045260245ffd5b9060016002830492168015611268575b602083101461126357565b611234565b91607f1691611258565b60209181520190565b5f5260205f2090565b905f929180549061129e61129783611248565b8094611272565b916001811690815f146112f557506001146112b9575b505050565b6112c6919293945061127b565b915f925b8184106112dd57505001905f80806112b4565b600181602092959395548486015201910192906112ca565b92949550505060ff19168252151560200201905f80806112b4565b9061131a91611284565b90565b9061133d6113369261132d610207565b93848092611310565b0383610a62565b565b6113489061131d565b90565b61135361122f565b5061135e600361133f565b90565b5f90565b61138291611371611361565b5061137a614e36565b919091614e43565b600190565b5f90565b5f90565b5f80fd5b60e01b90565b69ffffffffffffffffffff1690565b6113b181611399565b036113b857565b5f80fd5b905051906113c9826113a8565b565b6113d481610508565b036113db57565b5f80fd5b905051906113ec826113cb565b565b905051906113fb8261035c565b565b919060a08382031261144e57611415815f85016113bc565b9261142382602083016113df565b9261144b61143484604085016113ee565b9361144281606086016113ee565b936080016113bc565b90565b610211565b61145b610207565b3d5f823e3d90fd5b9050519061147082610ebc565b565b9060208282031261148b57611488915f01611463565b90565b610211565b6114a461149f6114a99261110e565b61042d565b610508565b90565b5f7f496e76616c696420707269636500000000000000000000000000000000000000910152565b6114e0600d602092610282565b6114e9816114ac565b0190565b6115029060208101905f8183039101526114d3565b90565b1561150c57565b611514610207565b62461bcd60e51b81528061152a600482016114ed565b0390fd5b90611537611387565b5061154061138b565b5061156560a061154f846109c7565b63feaf968c9061155d610207565b938492611393565b82528180611575600482016107d7565b03915afa80156116585761159a6020916115b0935f80929050611627575b50946109c7565b63313ce567906115a8610207565b938492611393565b825281806115c0600482016107d7565b03915afa908115611622575f916115f4575b50916115f0816115ea6115e45f611490565b91610508565b13611505565b9190565b611615915060203d811161161b575b61160d8183610a62565b810190611472565b5f6115d2565b503d611603565b611453565b611648915060a03d8111611651575b6116408183610a62565b8101906113fd565b50505090611593565b503d611636565b611453565b61166561110a565b506116706002610972565b90565b61167c90610430565b90565b61169361168e6116989261110e565b61042d565b610322565b90565b6116a49061167f565b90565b6116b09061044c565b90565b6116bc90610430565b90565b6116c8906116b3565b90565b6116d560a0610a8b565b90565b906116e29061032d565b9052565b906116f0906105b9565b9052565b90565b60020b90565b61171161170c611716926116f4565b61042d565b6116f7565b90565b90611723906116f7565b9052565b6117309061032d565b90565b9061173d90611727565b9052565b90565b61175861175361175d92611741565b61042d565b610224565b90565b61176a6010611744565b90565b61178161177c61178692610224565b61042d565b610518565b90565b60f81b90565b61179890611789565b90565b6117a76117ac91610518565b61178f565b9052565b6117bc8160019361179b565b0190565b90565b6117d76117d26117dc926117c0565b61042d565b610224565b90565b67ffffffffffffffff81116117f75760208091020190565b610a4e565b9061180e611809836117df565b610a8b565b918252565b606090565b5f5b82811061182657505050565b602090611831611813565b818401520161181a565b90611860611848836117fc565b9260208061185686936117df565b9201910390611818565b565b90565b61187961187461187e92611862565b61042d565b610224565b90565b61188b6006611865565b90565b90565b6118a56118a06118aa9261188e565b61042d565b610224565b90565b6118b7600c611891565b90565b90565b6118d16118cc6118d6926118ba565b61042d565b610224565b90565b6118e3600f6118bd565b90565b6001939261190585836118fd829561190d9761179b565b01809261179b565b01809261179b565b0190565b90565b61192861192361192d92611911565b61042d565b610224565b90565b67ffffffffffffffff811161194e5761194a602091610296565b0190565b610a4e565b9061196561196083611930565b610a8b565b918252565b6119735f611953565b90565b61197e61196a565b90565b61198b60a0610a8b565b90565b52565b9061199b906103ac565b9052565b906119a9906105e4565b9052565b52565b6119b9906116a7565b9052565b6119c6906105b9565b9052565b6119d3906116f7565b9052565b6119e09061044c565b90565b6119ec906119d7565b9052565b90608080611a4893611a085f8201515f8601906119b0565b611a1a602082015160208601906119b0565b611a2c604082015160408601906119bd565b611a3e606082015160608601906119ca565b01519101906119e3565b565b611a53906103ac565b9052565b611a60906105e4565b9052565b5190565b60209181520190565b611a90611a99602093611a9e93611a8781611a64565b93848093611a68565b9586910161028b565b610296565b0190565b611b05916080610120820192611abe5f8201515f8501906119f0565b611ad0602082015160a0850190611a4a565b611ae2604082015160c0850190611a57565b611af4606082015160e0850190611a57565b015190610100818403910152611a71565b90565b611b1d9160208201915f818403910152611aa2565b90565b5190565b90611b2e82611b20565b811015611b3f576020809102010190565b6108b5565b611b4e905161032d565b90565b611b5a906116a7565b9052565b611b67906105e4565b9052565b916020611b8c929493611b8560408201965f830190611b51565b0190611b5e565b565b90565b611ba5611ba0611baa92611b8e565b61042d565b610224565b90565b60209181520190565b611bd5611bde602093611be393611bcc81611a64565b93848093611bad565b9586910161028b565b610296565b0190565b60209181520190565b60200190565b90611c0091611a71565b90565b60200190565b90611c1d611c1683611b20565b8092611be7565b9081611c2e60208302840194611bf0565b925f915b838310611c4157505050505090565b90919293946020611c63611c5d83856001950387528951611bf6565b97611c03565b9301930191939290611c32565b9091611c8a611c989360408401908482035f860152611bb6565b916020818403910152611c09565b90565b611ca490610430565b90565b611cb090611c9b565b90565b611cbc9061044c565b90565b611cc89061044c565b90565b90602082820312611ce457611ce1915f016113ee565b90565b610211565b90505190611cf68261061c565b565b90602082820312611d1157611d0e915f01611ce9565b90565b610211565b611d1f9061044c565b90565b5f910312611d2c57565b610211565b611d45611d40611d4a926105e4565b61042d565b610322565b90565b611d5690611d31565b9052565b65ffffffffffff1690565b611d6e90611d5a565b9052565b611da7611dae94611d9d606094989795611d93608086019a5f87019061084f565b602085019061084f565b6040830190611d4d565b0190611d65565b565b939290611ddf611de793611dd160409360608901908982035f8b0152611bb6565b908782036020890152611c09565b940190610227565b565b611df8611dfe91939293610224565b92610224565b8203918211611e0957565b61114c565b611e22611e1d611e27926105e4565b61042d565b610224565b90565b5f7f496e73756666696369656e74206f757470757420616d6f756e74000000000000910152565b611e5e601a602092610282565b611e6781611e2a565b0190565b611e809060208101905f818303910152611e51565b90565b15611e8a57565b611e92610207565b62461bcd60e51b815280611ea860048201611e6b565b0390fd5b91611fa190949394611ebc61110a565b50611f98611f8f611f50611ecf87611673565b611ed887611673565b9088611ef4611eee611ee95f61169b565b61032d565b9161032d565b14612ad5575b87611f15611f0f611f0a5f61169b565b61032d565b9161032d565b14612abb575b611f28611f2e9192610322565b91610322565b1196875f14612ab257611f41875b6116a7565b96885f14612aab57505b6116a7565b92611f8a603c91611f81611f635f6116bf565b96611f78611f6f6116cb565b9a5f8c016116d8565b60208a016116d8565b604088016116e6565b6116fd565b60608501611719565b60808301611733565b93815f14612aa657611fb390156103ac565b5b611fde611fed611fca611fc5611760565b61176d565b611fd2610207565b928391602083016117b0565b60208201810382520382610a62565b61223a86612215876121ed61200a61200560016117c3565b61183b565b9661211b6120e76120f68c6120d3612028612023611881565b61176d565b61207261203b6120366118ad565b61176d565b9161206361204f61204a6118d9565b61176d565b612057610207565b948593602085016118e6565b60208201810382520382610a62565b976120ca6120886120836003611914565b61183b565b9b936120c189936120b861209a611976565b956120af6120a6611981565b995f8b0161198e565b60208901611991565b6040870161199f565b6060850161199f565b608083016119ad565b6120db610207565b92839160208301611b08565b60208201810382520382610a62565b61211587915f9061210f61210983611111565b85611b24565b52611111565b90611b24565b5150805f14612a915761219a8c6121335f8201611b44565b5b925f14612a815760206121479101611b44565b5b916121748d91612165612159610207565b93849260208401611b6b565b60208201810382520382610a62565b612194879160019061218e612188836117c3565b85611b24565b526117c3565b90611b24565b51506121c78a916121b86121ac610207565b93849260208401611b6b565b60208201810382520382610a62565b6121e785916002906121e16121db83611b91565b85611b24565b52611b91565b90611b24565b51506122066121fa610207565b93849260208401611c70565b60208201810382520382610a62565b61223484915f9061222e61222883611111565b85611b24565b52611111565b90611b24565b5150825f146129a0576122686122515f8801611b44565b61226261225d5f61169b565b6116a7565b90614e53565b5f146128fb5761227730611cbf565b315b5b9461228e6122895f8901611b44565b6116a7565b6122a86122a261229d5f61169b565b61032d565b9161032d565b0361274d575b6122c26122bd60208901611b44565b6116a7565b6122dc6122d66122d15f61169b565b61032d565b9161032d565b0361259d575b5061230c7f0000000000000000000000000000000000000000000000000000000000000000611d16565b91633593564c9190924292813b15612598575f61233c916123478296612330610207565b98899788968795611393565b855260048501611db0565b03925af1801561259357612567575b505f146124765761238261236b5f8501611b44565b61237c6123775f61169b565b6116a7565b90614e53565b5f146123c9576123c692506123c161239930611cbf565b315b5b916123ba6123b46123ae858790611de9565b92611e0e565b91610224565b1015611e83565b611de9565b90565b60206123f16123ec6123e76123e25f6124239801611b44565b6116a7565b611ca7565b611cb3565b6370a082319061241861240330611cbf565b9261240c610207565b97889485938493611393565b835260048301610d70565b03915afa928315612471576123c6936123c1915f91612443575b5061239b565b612464915060203d811161246a575b61245c8183610a62565b810190611ccb565b5f61243d565b503d612452565b611453565b61249c61248560208501611b44565b6124966124915f61169b565b6116a7565b90614e53565b5f146124ba576123c692506123c16124b330611cbf565b315b61239c565b60206124e26124dd6124d86124d3846125149801611b44565b6116a7565b611ca7565b611cb3565b6370a08231906125096124f430611cbf565b926124fd610207565b97889485938493611393565b835260048301610d70565b03915afa928315612562576123c6936123c1915f91612534575b506124b5565b612555915060203d811161255b575b61254d8183610a62565b810190611ccb565b5f61252e565b503d612543565b611453565b612586905f3d811161258c575b61257e8183610a62565b810190611d22565b5f612356565b503d612574565b611453565b61138f565b6125c16125bc6125b76125b260208b01611b44565b6116a7565b611ca7565b611cb3565b602063095ea7b3916125f27f0000000000000000000000000000000000000000000000000000000000000000610458565b906126115f80199561261c612605610207565b97889687958694611393565b84526004840161085c565b03925af180156127485761271c575b506126557f0000000000000000000000000000000000000000000000000000000000000000610458565b6387517c459061266f61266a60208b01611b44565b6116a7565b906126997f0000000000000000000000000000000000000000000000000000000000000000611d16565b9365ffffffffffff823b15612717575f946126d286926126c7946126bb610207565b998a9889978896611393565b865260048601611d72565b03925af18015612712576126e6575b6122e2565b612705905f3d811161270b575b6126fd8183610a62565b810190611d22565b5f6126e1565b503d6126f3565b611453565b61138f565b61273c9060203d8111612741575b6127348183610a62565b810190611cf8565b61262b565b503d61272a565b611453565b61277061276b6127666127615f8b01611b44565b6116a7565b611ca7565b611cb3565b602063095ea7b3916127a17f0000000000000000000000000000000000000000000000000000000000000000610458565b906127c05f8019956127cb6127b4610207565b97889687958694611393565b84526004840161085c565b03925af180156128f6576128ca575b506128047f0000000000000000000000000000000000000000000000000000000000000000610458565b6387517c4561281c6128175f8b01611b44565b6116a7565b6128457f0000000000000000000000000000000000000000000000000000000000000000611d16565b928465ffffffffffff823b156128c5575f9461287f869261287494612868610207565b998a9889978896611393565b865260048601611d72565b03925af180156128c057612894575b506122ae565b6128b3905f3d81116128b9575b6128ab8183610a62565b810190611d22565b5f61288e565b503d6128a1565b611453565b61138f565b6128ea9060203d81116128ef575b6128e28183610a62565b810190611cf8565b6127da565b503d6128d8565b611453565b612955602061292361291e6129196129145f8c01611b44565b6116a7565b611ca7565b611cb3565b6370a082319061294a61293530611cbf565b9261293e610207565b95869485938493611393565b835260048301610d70565b03915afa90811561299b575f9161296d575b50612279565b61298e915060203d8111612994575b6129868183610a62565b810190611ccb565b5f612967565b503d61297c565b611453565b6129c66129af60208801611b44565b6129c06129bb5f61169b565b6116a7565b90614e53565b5f146129dc576129d530611cbf565b315b61227a565b612a366020612a046129ff6129fa6129f5848c01611b44565b6116a7565b611ca7565b611cb3565b6370a0823190612a2b612a1630611cbf565b92612a1f610207565b95869485938493611393565b835260048301610d70565b03915afa908115612a7c575f91612a4e575b506129d7565b612a6f915060203d8111612a75575b612a678183610a62565b810190611ccb565b5f612a48565b503d612a5d565b611453565b5f612a8c9101611b44565b612148565b61219a8c612aa160208201611b44565b612134565b611fb4565b9050611f4b565b611f4181611f3c565b9050611f2e611f28612acc5f61167f565b92915050611f1b565b50612adf5f61167f565b611efa565b612aec61110a565b50612af760066108c9565b90565b91612b2492612b07611361565b50612b1c612b13614e36565b82908491614ec3565b919091614f4f565b600190565b6001612b359101610224565b90565b612b4c612b47612b5192610508565b61042d565b610224565b90565b612b63612b6991939293610224565b92610224565b8201809211612b7457565b61114c565b612b8161110a565b50612b8b5f611111565b612b945f611111565b905b81612bb2612bac612ba760066108c9565b610224565b91610224565b1015612cc057612bcf5f612bc8600685906108d6565b5001610922565b612bd881614aa9565b9081612bec612be65f611111565b91610224565b11612c05575b505090612bff905b612b29565b90612b96565b612c1f612c19612c145f61169b565b61032d565b9161032d565b1480612c9f575b612c9457612bff91612c87612c70612c8d93612c6a612c65612c5e612c596001612c5260068d906108d6565b500161094e565b61152e565b9190612b38565b614a16565b90611160565b612c81670de0b6b3a7640000611130565b906111a9565b90612b54565b905f612bf2565b5090612bff90612bfa565b50612ca861165d565b612cba612cb45f611111565b91610224565b14612c26565b905090565b5f7f496e76616c696420616d6f756e74000000000000000000000000000000000000910152565b612cf9600e602092610282565b612d0281612cc5565b0190565b612d1b9060208101905f818303910152612cec565b90565b15612d2557565b612d2d610207565b62461bcd60e51b815280612d4360048201612d06565b0390fd5b612d5090610430565b90565b612d5c90612d47565b90565b612d689061044c565b90565b5f7f4e4156206d7573742062652067726561746572207468616e207a65726f000000910152565b612d9f601d602092610282565b612da881612d6b565b0190565b612dc19060208101905f818303910152612d92565b90565b15612dcb57565b612dd3610207565b62461bcd60e51b815280612de960048201612dac565b0390fd5b60207f68616e207a65726f000000000000000000000000000000000000000000000000917f53686172657320746f206275726e206d757374206265206772656174657220745f8201520152565b612e476028604092610282565b612e5081612ded565b0190565b612e699060208101905f818303910152612e3a565b90565b15612e7357565b612e7b610207565b62461bcd60e51b815280612e9160048201612e54565b0390fd5b5f7f496e73756666696369656e742073686172657300000000000000000000000000910152565b612ec96013602092610282565b612ed281612e95565b0190565b612eeb9060208101905f818303910152612ebc565b90565b15612ef557565b612efd610207565b62461bcd60e51b815280612f1360048201612ed6565b0390fd5b90565b612f2e612f29612f3392612f17565b61042d565b610224565b90565b60207f616e636500000000000000000000000000000000000000000000000000000000917f5661756c742068617320696e73756666696369656e7420746f6b656e2062616c5f8201520152565b612f906024604092610282565b612f9981612f36565b0190565b612fb29060208101905f818303910152612f83565b90565b15612fbc57565b612fc4610207565b62461bcd60e51b815280612fda60048201612f9d565b0390fd5b90565b612ff5612ff0612ffa92612fde565b61042d565b6105b9565b90565b613008610bb8612fe1565b90565b61301f61301a61302492610224565b61042d565b6105e4565b90565b61303b6130366130409261110e565b61042d565b6105e4565b90565b90565b61305a61305561305f92613043565b61042d565b610518565b90565b5f1b90565b906130735f1991613062565b9181191691161790565b61309161308c61309692610224565b61042d565b610224565b90565b90565b906130b16130ac6130b89261307d565b613099565b8254613067565b9055565b5f7f55534443207472616e73666572206661696c6564000000000000000000000000910152565b6130f06014602092610282565b6130f9816130bc565b0190565b6131129060208101905f8183039101526130e3565b90565b1561311c57565b613124610207565b62461bcd60e51b81528061313a600482016130fd565b0390fd5b6131a79061315e816131586131525f611111565b91610224565b11612d1e565b602061319161318c7f0000000000000000000000000000000000000000000000000000000000000000612d53565b612d5f565b63313ce5679061319f610207565b948592611393565b825281806131b7600482016107d7565b03915afa801561357a576131d3925f9161354c575b5090614a16565b61321a6131de6111cb565b6131fa816131f46131ee5f611111565b91610224565b11612dc4565b6132158361320f670de0b6b3a7640000611130565b90611160565b6111a9565b906132378261323161322b5f611111565b91610224565b11612e6c565b61325c8261325561324f61324a336141c4565b610224565b91610224565b1115612eee565b6132655f611111565b61326e5f611111565b905b8161328c61328661328160066108c9565b610224565b91610224565b1015613416576133fe906132ad5f6132a6600686906108d6565b5001610922565b906132e26132d26132cc60026132c5600689906108d6565b5001610972565b87611160565b6132dc6064612f1a565b906111a9565b84836133166133107f000000000000000000000000000000000000000000000000000000000000000061032d565b9161032d565b14155f14613404579261338461337d6133f19361337861336061335b61335461334f60016133486133f79d60066108d6565b500161094e565b61152e565b9190612b38565b614a16565b91613372670de0b6b3a7640000611130565b90611160565b6111a9565b8290614075565b906133aa61339182614aa9565b6133a361339d85610224565b91610224565b1015612fb5565b7f0000000000000000000000000000000000000000000000000000000000000000916133dd6133d7612ffd565b9161300b565b905f936133eb600195613027565b93611eac565b90612b54565b915b612b29565b90613270565b50613410925090612b54565b916133f9565b91505061342661346e9233614fec565b61342f336141c4565b61344161343b5f611111565b91610224565b14613521575b7f000000000000000000000000000000000000000000000000000000000000000090614075565b60206134a161349c7f0000000000000000000000000000000000000000000000000000000000000000611ca7565b611cb3565b9163a9059cbb926134c65f3393956134d16134ba610207565b97889687958694611393565b84526004840161085c565b03925af1801561351c576134ec915f916134ee575b50613115565b565b61350f915060203d8111613515575b6135078183610a62565b810190611cf8565b5f6134e6565b503d6134fd565b611453565b61354761354061353160016117c3565b61353b6007610972565b611de9565b600761309c565b613447565b61356d915060203d8111613573575b6135658183610a62565b810190611472565b5f6131cc565b503d61355b565b611453565b61358761138b565b506135926012613046565b90565b5f90565b5f7f496e646578206f7574206f6620626f756e647300000000000000000000000000910152565b6135cd6013602092610282565b6135d681613599565b0190565b6135ef9060208101905f8183039101526135c0565b90565b156135f957565b613601610207565b62461bcd60e51b815280613617600482016135da565b0390fd5b906136259061032d565b9052565b90613633906104bb565b9052565b9061364190610224565b9052565b61364f6060610a8b565b90565b906136a16136986002613663613645565b9461367a6136725f8301610922565b5f880161361b565b6136926136896001830161094e565b60208801613629565b01610972565b60408401613637565b565b6136ac90613652565b90565b6136b9905161032d565b90565b6136c69051610224565b90565b61370e613714916136d8613595565b506136e161110a565b50613707816137016136fb6136f660066108c9565b610224565b91610224565b106135f2565b60066108d6565b506136a3565b9061372c60406137255f85016136af565b93016136bc565b90565b90613742929161373d61504b565b613bee565b565b5190565b5190565b5f7f417272617973206d757374206265206f6620657175616c206c656e6774680000910152565b613780601e602092610282565b6137898161374c565b0190565b6137a29060208101905f818303910152613773565b90565b156137ac57565b6137b4610207565b62461bcd60e51b8152806137ca6004820161378d565b0390fd5b906137d882613748565b8110156137e9576020809102010190565b6108b5565b5f7f576569676874206d75737420626520706f736974697665000000000000000000910152565b6138226017602092610282565b61382b816137ee565b0190565b6138449060208101905f818303910152613815565b90565b1561384e57565b613856610207565b62461bcd60e51b81528061386c6004820161382f565b0390fd5b61387a6064612f1a565b90565b5f7f546f74616c2077656967687473206d7573742073756d20746f20313030000000910152565b6138b1601d602092610282565b6138ba8161387d565b0190565b6138d39060208101905f8183039101526138a4565b90565b156138dd57565b6138e5610207565b62461bcd60e51b8152806138fb600482016138be565b0390fd5b61390a906003611160565b90565b1b90565b9190600861392c9102916139265f198461390d565b9261390d565b9181191691161790565b919061394c6139476139549361307d565b613099565b908354613911565b9055565b61396a9161396461110a565b91613936565b565b5f600261398492828082015582600182015501613958565b565b634e487b7160e01b5f525f60045260245ffd5b905f036139ab576139a99061396c565b565b613986565b5b8181106139bc575050565b806139c95f600393613999565b016139b1565b90918281106139de575b505050565b6139fc6139f66139f0613a07956138ff565b926138ff565b926108cd565b9182019101906139b0565b5f80806139d9565b90680100000000000000008111613a385781613a2d613a36936108c9565b908281556139cf565b565b610a4e565b5f613a4791613a0f565b565b905f03613a5b57613a5990613a3d565b565b613986565b90565b90613a6d82613744565b811015613a7e576020809102010190565b6108b5565b613a8c90610430565b90565b613a9890613a83565b90565b613aa56060610a8b565b90565b5f5260205f2090565b5490565b613abe81613ab1565b821015613ad857613ad0600391613aa8565b910201905f90565b6108b5565b90613aee60018060a01b0391613062565b9181191691161790565b90565b90613b10613b0b613b17926116a7565b613af8565b8254613add565b9055565b613b2590516104bb565b90565b613b3190613a83565b90565b90565b90613b4c613b47613b5392613b28565b613b34565b8254613add565b9055565b90613b9b60406002613ba194613b7a5f8201613b745f88016136af565b90613afb565b613b9360018201613b8d60208801613b1b565b90613b37565b0192016136bc565b9061309c565b565b9190613bb457613bb291613b57565b565b613986565b9081549168010000000000000000831015613be95782613be1916001613be795018155613ab5565b90613ba3565b565b610a4e565b919091613bfa81613744565b613c14613c0e613c0986613744565b610224565b91610224565b1480613ff9575b613c24906137a5565b613c2d5f611111565b93613c375f611111565b945b85613c54613c4e613c4987613748565b610224565b91610224565b1015613cb457613ca8613cae91613c8f613c77613c72888b906137ce565b6136bc565b613c89613c835f611111565b91610224565b11613847565b613ca2613c9d878a906137ce565b6136bc565b90612b54565b95612b29565b94613c39565b613cdc919394929550613cd6613cd0613ccb613870565b610224565b91610224565b146138d6565b613ce55f611111565b5b80613d02613cfc613cf760066108c9565b610224565b91610224565b1015613df157613d7490613d235f613d1c600684906108d6565b5001610922565b613d2c81614aa9565b9080613d60613d5a7f000000000000000000000000000000000000000000000000000000000000000061032d565b9161032d565b141580613dd7575b613d79575b5050612b29565b613ce6565b613d87613dcf928290614075565b907f000000000000000000000000000000000000000000000000000000000000000091613dbb613db5612ffd565b9161300b565b905f93613dc9600195613027565b93611eac565b505f80613d6d565b5081613deb613de55f611111565b91610224565b11613d68565b509091613dff5f6006613a49565b613e085f611111565b5b80613e24613e1e613e1988613744565b610224565b91610224565b1015613eb957613eb490613eaf613e3b6006613a60565b613e4e613e49898590613a63565b6136af565b90613eaa613e6d613e68613e638a8890613a63565b6136af565b613a8f565b613ea1613e83613e7e8a89906137ce565b6136bc565b91613e98613e8f613a9b565b965f880161361b565b60208601613629565b60408401613637565b613bb9565b612b29565b613e09565b509050613ec530611cbf565b3192613ed05f611111565b5b80613eec613ee6613ee185613744565b610224565b91610224565b1015613ff257613f7f90613f09613f04848390613a63565b6136af565b613f38613f28613f22613f1d8886906137ce565b6136bc565b89611160565b613f326064612f1a565b906111a9565b81613f6b613f657f000000000000000000000000000000000000000000000000000000000000000061032d565b9161032d565b141580613fd8575b613f84575b5050612b29565b613ed1565b613fd0917f00000000000000000000000000000000000000000000000000000000000000009091613fbc613fb6612ffd565b9161300b565b905f93613fca600195613027565b93611eac565b505f80613f78565b5080613fec613fe65f611111565b91610224565b11613f73565b5050509050565b50613c2461400684613744565b61402061401a61401586613748565b610224565b91610224565b149050613c1b565b90614033929161372f565b565b61404161404791610518565b91610518565b90039060ff821161405457565b61114c565b61406290610518565b604d811161407057600a0a90565b61114c565b9061407e61110a565b508061409a61409461408f5f61169b565b61032d565b9161032d565b146141aa5760206140b56140b06140cb93612d53565b612d5f565b63313ce567906140c3610207565b938492611393565b825281806140db600482016107d7565b03915afa9081156141a5575f91614177575b50806141026140fc6012613046565b91610518565b105f146141315761412861412361412e939261411e6012613046565b614035565b614059565b906111a9565b90565b8061414561413f6012613046565b91610518565b1161414e575090565b61416e61416961417493926141636012613046565b90614035565b614059565b90611160565b90565b614198915060203d811161419e575b6141908183610a62565b810190611472565b5f6140ed565b503d614186565b611453565b5090565b906141b8906116a7565b5f5260205260405f2090565b6141da6141df916141d361110a565b505f6141ae565b610972565b90565b6141ea61504b565b6141f26141f4565b565b6142056142005f61169b565b615099565b565b61420f6141e2565b565b614219613595565b506142246005610922565b90565b61422f61122f565b5061423a600461133f565b90565b61425a91614249611361565b50614252614e36565b919091614f4f565b600190565b60409061428861428f949695939661427e60608401985f85019061084f565b602083019061084f565b0190610227565b565b5f7f5472616e73666572206661696c65642100000000000000000000000000000000910152565b6142c56010602092610282565b6142ce81614291565b0190565b6142e79060208101905f8183039101526142b8565b90565b156142f157565b6142f9610207565b62461bcd60e51b81528061430f600482016142d2565b0390fd5b60207f207a65726f000000000000000000000000000000000000000000000000000000917f546f6b656e207072696365206d7573742062652067726561746572207468616e5f8201520152565b61436d6025604092610282565b61437681614313565b0190565b61438f9060208101905f818303910152614360565b90565b1561439957565b6143a1610207565b62461bcd60e51b8152806143b76004820161437a565b0390fd5b60207f68616e207a65726f000000000000000000000000000000000000000000000000917f53686172657320746f206d696e74206d757374206265206772656174657220745f8201520152565b6144156028604092610282565b61441e816143bb565b0190565b6144379060208101905f818303910152614408565b90565b1561444157565b614449610207565b62461bcd60e51b81528061445f60048201614422565b0390fd5b906144808261447a6144745f611111565b91610224565b11612d1e565b614488612b79565b916144ba6144b57f0000000000000000000000000000000000000000000000000000000000000000611ca7565b611cb3565b9060206323b872dd9233906144eb5f6144d230611cbf565b966144f6876144df610207565b998a9788968795611393565b85526004850161425f565b03925af1918215614a115761455f92614516915f916149e3575b506142ea565b60206145496145447f0000000000000000000000000000000000000000000000000000000000000000612d53565b612d5f565b63313ce56790614557610207565b948592611393565b8252818061456f600482016107d7565b03915afa80156149de5761458b925f916149b0575b5090614a16565b6145936111cb565b9161459d5f611111565b936145a75f611111565b945b856145c56145bf6145ba60066108c9565b610224565b91610224565b1015614875576145e25f6145db600689906108d6565b5001610922565b6145fa60026145f360068a906108d6565b5001610972565b61464561465561461f61461a60016146138d60066108d6565b500161094e565b61152e565b9290929361463f846146396146335f611490565b91610508565b13614392565b89611160565b61464f6064612f1a565b906111a9565b92838161468a6146847f000000000000000000000000000000000000000000000000000000000000000061032d565b9161032d565b036146e1575b50506146b86146d5936146b26146db96946146ad6146cf95612b38565b614a16565b90611160565b6146c9670de0b6b3a7640000611130565b906111a9565b90612b54565b95612b29565b946145a9565b61476b9192945061471e614719614723927f000000000000000000000000000000000000000000000000000000000000000090614075565b61300b565b611e0e565b7f00000000000000000000000000000000000000000000000000000000000000008391614757614751612ffd565b9161300b565b905f93614765600195613027565b93611eac565b6147756012613046565b918061479161478b6147865f61169b565b61032d565b9161032d565b036147c4575b506146d5936146b26146db96946146ad6147b76146cf966146b896614a16565b9750509496505091614690565b6147f69195939492506147e06147db602092612d53565b612d5f565b63313ce567906147ee610207565b938492611393565b82528180614806600482016107d7565b03915afa918215614870576146b26146d5956146ad6147b76146db996146cf976146b8975f91614842575b509750955050509496505093614797565b614863915060203d8111614869575b61485b8183610a62565b810190611472565b5f614831565b503d614851565b611453565b9250929093506148845f611111565b5b806148a161489b61489660066108c9565b610224565b91610224565b10156148c3576148be906148b7600682906108d6565b5050612b29565b614885565b50614940926148d061110a565b506148d961165d565b6148eb6148e55f611111565b91610224565b14908115614995575b505f1461496d57505b6149198161491361490d5f611111565b91610224565b1161443a565b614922336141c4565b61493461492e5f611111565b91610224565b14614942575b336150fa565b565b61496861496161495260016117c3565b61495c6007610972565b612b54565b600761309c565b61493a565b61498b61499092614985670de0b6b3a7640000611130565b90611160565b6111a9565b6148fd565b90506149a96149a35f611111565b91610224565b145f6148f4565b6149d1915060203d81116149d7575b6149c98183610a62565b810190611472565b5f614584565b503d6149bf565b611453565b614a04915060203d8111614a0a575b6149fc8183610a62565b810190611cf8565b5f614510565b503d6149f2565b611453565b90614a1f61110a565b5080614a34614a2e6012613046565b91610518565b105f14614a6357614a5a614a55614a609392614a506012613046565b614035565b614059565b90611160565b90565b80614a77614a716012613046565b91610518565b11614a80575090565b614aa0614a9b614aa69392614a956012613046565b90614035565b614059565b906111a9565b90565b614ab161110a565b5080614acd614ac7614ac25f61169b565b61032d565b9161032d565b14614bf057806020614ae9614ae4614b1b94611ca7565b611cb3565b6370a0823190614b10614afb30611cbf565b92614b04610207565b96879485938493611393565b835260048301610d70565b03915afa918215614beb57614b46614b41614b5c946020935f91614bbe575b5093612d53565b612d5f565b63313ce56790614b54610207565b948592611393565b82528180614b6c600482016107d7565b03915afa8015614bb957614b88925f91614b8b575b5090614a16565b90565b614bac915060203d8111614bb2575b614ba48183610a62565b810190611472565b5f614b81565b503d614b9a565b611453565b614bde9150843d8111614be4575b614bd68183610a62565b810190611ccb565b5f614b3a565b503d614bcc565b611453565b50614bfa30611cbf565b3190565b90614c08906116a7565b5f5260205260405f2090565b614c3991614c2f614c3492614c2761110a565b506001614bfe565b6141ae565b610972565b90565b614c4461110a565b50614c4f6007610972565b90565b916020614c73929493614c6c60408201965f83019061084f565b019061084f565b565b614c7d61110a565b50614c8f614c8a82611ca7565b611cb3565b90602063dd62ed3e92614ca130611cbf565b90614ce6614cce7f0000000000000000000000000000000000000000000000000000000000000000611d16565b95614cf1614cda610207565b97889586948594611393565b845260048401614c52565b03915afa918215614dc157614d1c614d17614d32946020935f91614d94575b5093612d53565b612d5f565b63313ce56790614d2a610207565b948592611393565b82528180614d42600482016107d7565b03915afa8015614d8f57614d5e925f91614d61575b5090614a16565b90565b614d82915060203d8111614d88575b614d7a8183610a62565b810190611472565b5f614d57565b503d614d70565b611453565b614db49150843d8111614dba575b614dac8183610a62565b810190611ccb565b5f614d10565b503d614da2565b611453565b614dd790614dd261504b565b614dd9565b565b80614df4614dee614de95f61169b565b61032d565b9161032d565b14614e0457614e0290615099565b565b614e27614e105f61169b565b5f918291631e4fbdf760e01b835260048301610d70565b0390fd5b614e3490614dc6565b565b614e3e613595565b503390565b91614e519291600192615158565b565b614e79614e74614e6e614e7f93614e68611361565b506116a7565b936116a7565b61032d565b9161032d565b1490565b604090614eac614eb39496959396614ea260608401985f85019061084f565b6020830190610227565b0190610227565b565b90614ec09103610224565b90565b929192614ed1818390614c14565b9081614ee6614ee05f19610224565b91610224565b03614ef3575b5050509050565b81614f06614f0087610224565b91610224565b10614f2c57614f239394614f1b919392614eb5565b905f92615158565b805f8080614eec565b50614f4b849291925f938493637dc7a0d960e11b855260048501614e83565b0390fd5b9182614f6b614f65614f605f61169b565b61032d565b9161032d565b14614fc55781614f8b614f85614f805f61169b565b61032d565b9161032d565b14614f9e57614f9c92919091615275565b565b614fc1614faa5f61169b565b5f91829163ec442f0560e01b835260048301610d70565b0390fd5b614fe8614fd15f61169b565b5f918291634b637e8f60e11b835260048301610d70565b0390fd5b9081615008615002614ffd5f61169b565b61032d565b9161032d565b1461502457615022919061501b5f61169b565b9091615275565b565b6150476150305f61169b565b5f918291634b637e8f60e11b835260048301610d70565b0390fd5b615053614211565b61506c615066615061614e36565b61032d565b9161032d565b0361507357565b61509561507e614e36565b5f91829163118cdaa760e01b835260048301610d70565b0390fd5b6150a36005610922565b6150ae826005613afb565b906150e26150dc7f8be0079c531659141344cd1fd0a4f28419497f9722a3daafe3b4186f6b6457e0936116a7565b916116a7565b916150eb610207565b806150f5816107d7565b0390a3565b8061511561510f61510a5f61169b565b61032d565b9161032d565b146151315761512f916151275f61169b565b919091615275565b565b61515461513d5f61169b565b5f91829163ec442f0560e01b835260048301610d70565b0390fd5b90928161517561516f61516a5f61169b565b61032d565b9161032d565b14615240578361519561518f61518a5f61169b565b61032d565b9161032d565b14615219576151b9836151b46151ad60018690614bfe565b87906141ae565b61309c565b6151c3575b505050565b91909161520e6151fc6151f67f8c5be1e5ebec7d5bd14f71427d1e84f3dd0314c0f7b2291e5b200ac8c7c3b925936116a7565b936116a7565b93615205610207565b91829182610234565b0390a35f80806151be565b61523c6152255f61169b565b5f918291634a1406b160e11b835260048301610d70565b0390fd5b61526361524c5f61169b565b5f91829163e602df0560e01b835260048301610d70565b0390fd5b906152729101610224565b90565b9190918061529361528d6152885f61169b565b61032d565b9161032d565b145f14615374576152b76152b0836152ab6002610972565b612b54565b600261309c565b5b826152d36152cd6152c85f61169b565b61032d565b9161032d565b145f14615348576152f76152f0836152eb6002610972565b614eb5565b600261309c565b5b91909161534361533161532b7fddf252ad1be2c89b69c2b068fc378daa952ba7f163c4a11628f55a4df523b3ef936116a7565b936116a7565b9361533a610207565b91829182610234565b0390a3565b61536f8261536961535a5f87906141ae565b9161536483610972565b615267565b9061309c565b6152f8565b6153876153825f83906141ae565b610972565b8061539a61539485610224565b91610224565b106153c2576153ad6153bd918490614eb5565b6153b85f84906141ae565b61309c565b6152b8565b906153e09091925f93849363391434e360e21b855260048501614e83565b0390fdfea2646970667358221220bfb27d2afaaae4109f94619be6e2303e7390c156c3cd73ef07f160be4e20f9a564736f6c634300081a0033",
    "linkReferences": {}
  },
  "methodIdentifiers": {
    "allowance(address,address)": "dd62ed3e",
    "approve(address,uint256)": "095ea7b3",
    "balanceOf(address)": "70a08231",
    "calculateMarketCap()": "27c13f86",
    "convertInputTo18Decimals(uint256,uint8)": "ca267a44",
    "convertInputToTokenDecimals(uint256,address)": "60a46673",
    "decimals()": "313ce567",
    "deposit(uint256)": "b6b55f25",
    "ethPriceFeed()": "af7665ce",
    "getErc20Allowance(address)": "eb23ed08",
    "getErc20Balance(address)": "cc42010b",
    "getLatestPrice(address)": "16345f18",
    "getNAV()": "0126c606",
    "getNumberOfInvestors()": "e51c94fb",
    "getTokenDistributionCount()": "1f8a4dd4",
    "getTokenDistributionData(uint256)": "4df630ef",
    "name()": "06fdde03",
    "owner()": "8da5cb5b",
    "permit2()": "12261ee7",
    "renounceOwnership()": "715018a6",
    "router()": "f887ea40",
    "swapExactInputSingle(address,address,uint24,uint128,uint128,bool)": "1bca2cbd",
    "symbol()": "95d89b41",
    "tokens(uint256)": "4f64b2be",
    "totalSupply()": "18160ddd",
    "transfer(address,uint256)": "a9059cbb",
    "transferFrom(address,address,uint256)": "23b872dd",
    "transferOwnership(address)": "f2fde38b",
    "updateAssetsAndWeights(address[],address[],uint256[])": "55c45697",
    "withdraw(uint256)": "2e1a7d4d"
  },
  "id": 129
}