{"abi":[{"type":"constructor","inputs":[{"name":"name","type":"string","internalType":"string"},{"name":"tokenAddresses","type":"address[]","internalType":"address[]"},{"name":"blocksensePriceAggregators","type":"address[]","internalType":"address[]"},{"name":"weights","type":"uint256[]","internalType":"uint256[]"},{"name":"universalRouterAddress","type":"address","internalType":"address"},{"name":"permit2Address","type":"address","internalType":"address"},{"name":"usdcAddress","type":"address","internalType":"address"},{"name":"ethAddress","type":"address","internalType":"address"},{"name":"blocksensePriceAggregatorAddress","type":"address","internalType":"address"}],"stateMutability":"nonpayable"},{"type":"fallback","stateMutability":"payable"},{"type":"receive","stateMutability":"payable"},{"type":"function","name":"allowance","inputs":[{"name":"owner","type":"address","internalType":"address"},{"name":"spender","type":"address","internalType":"address"}],"outputs":[{"name":"","type":"uint256","internalType":"uint256"}],"stateMutability":"view"},{"type":"function","name":"approve","inputs":[{"name":"spender","type":"address","internalType":"address"},{"name":"value","type":"uint256","internalType":"uint256"}],"outputs":[{"name":"","type":"bool","internalType":"bool"}],"stateMutability":"nonpayable"},{"type":"function","name":"balanceOf","inputs":[{"name":"account","type":"address","internalType":"address"}],"outputs":[{"name":"","type":"uint256","internalType":"uint256"}],"stateMutability":"view"},{"type":"function","name":"calculateMarketCap","inputs":[],"outputs":[{"name":"","type":"uint256","internalType":"uint256"}],"stateMutability":"view"},{"type":"function","name":"convertInputTo18Decimals","inputs":[{"name":"amount","type":"uint256","internalType":"uint256"},{"name":"decimals","type":"uint8","internalType":"uint8"}],"outputs":[{"name":"","type":"uint256","internalType":"uint256"}],"stateMutability":"pure"},{"type":"function","name":"convertInputToTokenDecimals","inputs":[{"name":"amount","type":"uint256","internalType":"uint256"},{"name":"token","type":"address","internalType":"address"}],"outputs":[{"name":"","type":"uint256","internalType":"uint256"}],"stateMutability":"view"},{"type":"function","name":"decimals","inputs":[],"outputs":[{"name":"","type":"uint8","internalType":"uint8"}],"stateMutability":"view"},{"type":"function","name":"deposit","inputs":[{"name":"amount","type":"uint256","internalType":"uint256"}],"outputs":[],"stateMutability":"payable"},{"type":"function","name":"ethPriceFeed","inputs":[],"outputs":[{"name":"","type":"address","internalType":"contract IBlocksense"}],"stateMutability":"view"},{"type":"function","name":"getErc20Allowance","inputs":[{"name":"tokenAddress","type":"address","internalType":"address"}],"outputs":[{"name":"","type":"uint256","internalType":"uint256"}],"stateMutability":"view"},{"type":"function","name":"getErc20Balance","inputs":[{"name":"tokenAddress","type":"address","internalType":"address"}],"outputs":[{"name":"","type":"uint256","internalType":"uint256"}],"stateMutability":"view"},{"type":"function","name":"getLatestPrice","inputs":[{"name":"priceFeed","type":"address","internalType":"contract IBlocksense"}],"outputs":[{"name":"","type":"int256","internalType":"int256"},{"name":"","type":"uint8","internalType":"uint8"}],"stateMutability":"view"},{"type":"function","name":"getNAV","inputs":[],"outputs":[{"name":"","type":"uint256","internalType":"uint256"}],"stateMutability":"view"},{"type":"function","name":"getNumberOfInvestors","inputs":[],"outputs":[{"name":"","type":"uint256","internalType":"uint256"}],"stateMutability":"view"},{"type":"function","name":"getTokenDistributionCount","inputs":[],"outputs":[{"name":"","type":"uint256","internalType":"uint256"}],"stateMutability":"view"},{"type":"function","name":"getTokenDistributionData","inputs":[{"name":"index","type":"uint256","internalType":"uint256"}],"outputs":[{"name":"","type":"address","internalType":"address"},{"name":"","type":"uint256","internalType":"uint256"}],"stateMutability":"view"},{"type":"function","name":"name","inputs":[],"outputs":[{"name":"","type":"string","internalType":"string"}],"stateMutability":"view"},{"type":"function","name":"owner","inputs":[],"outputs":[{"name":"","type":"address","internalType":"address"}],"stateMutability":"view"},{"type":"function","name":"permit2","inputs":[],"outputs":[{"name":"","type":"address","internalType":"contract IPermit2"}],"stateMutability":"view"},{"type":"function","name":"renounceOwnership","inputs":[],"outputs":[],"stateMutability":"nonpayable"},{"type":"function","name":"router","inputs":[],"outputs":[{"name":"","type":"address","internalType":"contract UniversalRouter"}],"stateMutability":"view"},{"type":"function","name":"swapExactInputSingle","inputs":[{"name":"token0","type":"address","internalType":"address"},{"name":"token1","type":"address","internalType":"address"},{"name":"fee","type":"uint24","internalType":"uint24"},{"name":"amountIn","type":"uint128","internalType":"uint128"},{"name":"minAmountOut","type":"uint128","internalType":"uint128"},{"name":"_zeroForOne","type":"bool","internalType":"bool"}],"outputs":[{"name":"amountOut","type":"uint256","internalType":"uint256"}],"stateMutability":"nonpayable"},{"type":"function","name":"symbol","inputs":[],"outputs":[{"name":"","type":"string","internalType":"string"}],"stateMutability":"view"},{"type":"function","name":"tokens","inputs":[{"name":"","type":"uint256","internalType":"uint256"}],"outputs":[{"name":"tokenAddress","type":"address","internalType":"address"},{"name":"priceFeed","type":"address","internalType":"contract IBlocksense"},{"name":"weight","type":"uint256","internalType":"uint256"}],"stateMutability":"view"},{"type":"function","name":"totalSupply","inputs":[],"outputs":[{"name":"","type":"uint256","internalType":"uint256"}],"stateMutability":"view"},{"type":"function","name":"transfer","inputs":[{"name":"to","type":"address","internalType":"address"},{"name":"value","type":"uint256","internalType":"uint256"}],"outputs":[{"name":"","type":"bool","internalType":"bool"}],"stateMutability":"nonpayable"},{"type":"function","name":"transferFrom","inputs":[{"name":"from","type":"address","internalType":"address"},{"name":"to","type":"address","internalType":"address"},{"name":"value","type":"uint256","internalType":"uint256"}],"outputs":[{"name":"","type":"bool","internalType":"bool"}],"stateMutability":"nonpayable"},{"type":"function","name":"transferOwnership","inputs":[{"name":"newOwner","type":"address","internalType":"address"}],"outputs":[],"stateMutability":"nonpayable"},{"type":"function","name":"updateAssetsAndWeights","inputs":[{"name":"tokenAddresses","type":"address[]","internalType":"address[]"},{"name":"blocksensePriceAggregators","type":"address[]","internalType":"address[]"},{"name":"weights","type":"uint256[]","internalType":"uint256[]"}],"outputs":[],"stateMutability":"nonpayable"},{"type":"function","name":"withdraw","inputs":[{"name":"usdToWithdraw","type":"uint256","internalType":"uint256"}],"outputs":[],"stateMutability":"payable"},{"type":"event","name":"Approval","inputs":[{"name":"owner","type":"address","indexed":true,"internalType":"address"},{"name":"spender","type":"address","indexed":true,"internalType":"address"},{"name":"value","type":"uint256","indexed":false,"internalType":"uint256"}],"anonymous":false},{"type":"event","name":"OwnershipTransferred","inputs":[{"name":"previousOwner","type":"address","indexed":true,"internalType":"address"},{"name":"newOwner","type":"address","indexed":true,"internalType":"address"}],"anonymous":false},{"type":"event","name":"Transfer","inputs":[{"name":"from","type":"address","indexed":true,"internalType":"address"},{"name":"to","type":"address","indexed":true,"internalType":"address"},{"name":"value","type":"uint256","indexed":false,"internalType":"uint256"}],"anonymous":false},{"type":"error","name":"ERC20InsufficientAllowance","inputs":[{"name":"spender","type":"address","internalType":"address"},{"name":"allowance","type":"uint256","internalType":"uint256"},{"name":"needed","type":"uint256","internalType":"uint256"}]},{"type":"error","name":"ERC20InsufficientBalance","inputs":[{"name":"sender","type":"address","internalType":"address"},{"name":"balance","type":"uint256","internalType":"uint256"},{"name":"needed","type":"uint256","internalType":"uint256"}]},{"type":"error","name":"ERC20InvalidApprover","inputs":[{"name":"approver","type":"address","internalType":"address"}]},{"type":"error","name":"ERC20InvalidReceiver","inputs":[{"name":"receiver","type":"address","internalType":"address"}]},{"type":"error","name":"ERC20InvalidSender","inputs":[{"name":"sender","type":"address","internalType":"address"}]},{"type":"error","name":"ERC20InvalidSpender","inputs":[{"name":"spender","type":"address","internalType":"address"}]},{"type":"error","name":"OwnableInvalidOwner","inputs":[{"name":"owner","type":"address","internalType":"address"}]},{"type":"error","name":"OwnableUnauthorizedAccount","inputs":[{"name":"account","type":"address","internalType":"address"}]}],"bytecode":{"object":"0x6101606040523461010257610024610015610476565b97969096959195949294610a04565b61002c610107565b61559c610fe3823960805181505060a05181505060c0518181816132d80152818161345c0152818161351c015281816135db01528181614613015281816146a2015281816147e20152818161487601526148a7015260e051818181613eb801528181613f0c015281816140c3015261410c01526101005181818161107901528181612309015281816125d201528181612752015281816129000152614e2c01526101205181818161040b015281816126ad015281816127100152818161285c01526128bf01526101405181610e27015261559c90f35b61010d565b60405190565b5f80fd5b601f801991011690565b634e487b7160e01b5f52604160045260245ffd5b9061013990610111565b810190811060018060401b0382111761015157604052565b61011b565b90610169610162610107565b928361012f565b565b5f80fd5b5f80fd5b5f80fd5b5f80fd5b60018060401b03811161019757610193602091610111565b0190565b61011b565b90825f9392825e0152565b909291926101bc6101b78261017b565b610156565b938185526020850190828401116101d8576101d69261019c565b565b610177565b9080601f830112156101fb578160206101f8935191016101a7565b90565b610173565b60018060401b0381116102165760208091020190565b61011b565b5f80fd5b60018060a01b031690565b6102339061021f565b90565b61023f8161022a565b0361024657565b5f80fd5b9050519061025782610236565b565b9092919261026e61026982610200565b610156565b93818552602080860192028301928184116102ab57915b8383106102925750505050565b602080916102a0848661024a565b815201920191610285565b61021b565b9080601f830112156102ce578160206102cb93519101610259565b90565b610173565b60018060401b0381116102e95760208091020190565b61011b565b90565b6102fa816102ee565b0361030157565b5f80fd5b90505190610312826102f1565b565b90929192610329610324826102d3565b610156565b938185526020808601920283019281841161036657915b83831061034d5750505050565b6020809161035b8486610305565b815201920191610340565b61021b565b9080601f830112156103895781602061038693519101610314565b90565b610173565b909161012082840312610471575f82015160018060401b03811161046c57836103b89184016101dd565b92602083015160018060401b03811161046757816103d79185016102b0565b92604081015160018060401b03811161046257826103f69183016102b0565b92606082015160018060401b03811161045d578361041591840161036b565b92610423816080850161024a565b926104318260a0830161024a565b9261045a6104428460c0850161024a565b936104508160e0860161024a565b936101000161024a565b90565b61016f565b61016f565b61016f565b61016f565b61016b565b61049461657f8038038061048981610156565b92833981019061038e565b909192939495969798565b5f1b90565b906104b05f199161049f565b9181191691161790565b90565b90565b6104d46104cf6104d9926104ba565b6104bd565b6102ee565b90565b90565b906104f46104ef6104fb926104c0565b6104dc565b82546104a4565b9055565b5190565b5190565b60209181520190565b5f7f417272617973206d757374206265206f6620657175616c206c656e6774680000910152565b610544601e602092610507565b61054d81610510565b0190565b6105669060208101905f818303910152610537565b90565b1561057057565b610578610107565b62461bcd60e51b81528061058e60048201610551565b0390fd5b600161059e91016102ee565b90565b634e487b7160e01b5f52603260045260245ffd5b906105bf82610503565b8110156105d0576020809102010190565b6105a1565b6105df90516102ee565b90565b5f7f576569676874206d75737420626520706f736974697665000000000000000000910152565b6106166017602092610507565b61061f816105e2565b0190565b6106389060208101905f818303910152610609565b90565b1561064257565b61064a610107565b62461bcd60e51b81528061066060048201610623565b0390fd5b634e487b7160e01b5f52601160045260245ffd5b61068761068d919392936102ee565b926102ee565b820180921161069857565b610664565b90565b6106b46106af6106b99261069d565b6104bd565b6102ee565b90565b6106c660646106a0565b90565b5f7f546f74616c2077656967687473206d7573742073756d20746f20313030000000910152565b6106fd601d602092610507565b610706816106c9565b0190565b61071f9060208101905f8183039101526106f0565b90565b1561072957565b610731610107565b62461bcd60e51b8152806107476004820161070a565b0390fd5b90565b90610758826104ff565b811015610769576020809102010190565b6105a1565b610778905161022a565b90565b61078f61078a6107949261021f565b6104bd565b61021f565b90565b6107a09061077b565b90565b6107ac90610797565b90565b6107b96060610156565b90565b906107c69061022a565b9052565b6107d39061022a565b90565b906107e0906107ca565b9052565b906107ee906102ee565b9052565b5f5260205f2090565b5490565b610808816107fb565b8210156108225761081a6003916107f2565b910201905f90565b6105a1565b634e487b7160e01b5f525f60045260245ffd5b9061084b60018060a01b039161049f565b9181191691161790565b61085e9061077b565b90565b61086a90610855565b90565b90565b9061088561088061088c92610861565b61086d565b825461083a565b9055565b61089a90516107ca565b90565b6108a690610797565b90565b90565b906108c16108bc6108c89261089d565b6108a9565b825461083a565b9055565b6108e06108db6108e5926102ee565b6104bd565b6102ee565b90565b906108fd6108f8610904926108cc565b6104dc565b82546104a4565b9055565b9061094c604060026109529461092b5f82016109255f880161076e565b90610870565b6109446001820161093e60208801610890565b906108ac565b0192016105d5565b906108e8565b565b91906109655761096391610908565b565b610827565b1b90565b908154916801000000000000000083101561099e578261099691600161099c950181556107ff565b90610954565b565b61011b565b6109ac9061077b565b90565b6109b8906109a3565b90565b6109c49061021f565b90565b6109d190516109bb565b90565b6109dd9061077b565b90565b6109e9906109d4565b90565b6109f59061077b565b90565b610a01906109ec565b90565b610a1a9099929496989193979933908091610ca9565b610a255f60076104df565b610a2e836104ff565b610a48610a42610a3d876104ff565b6102ee565b916102ee565b1480610c30575b610a5890610569565b610a615f6104c0565b98610a6b5f6104c0565b995b8a610a88610a82610a7d8c610503565b6102ee565b916102ee565b1015610ae857610adc610ae291610ad6610ad18e610acb610ab38f610aae9084906105b5565b6105d5565b610ac5610abf5f6104c0565b916102ee565b1161063b565b8d6105b5565b6105d5565b90610678565b9a610592565b99610a6d565b610b159193959896999294979a50610b0f610b09610b046106bc565b6102ee565b916102ee565b14610722565b610b1e5f6104c0565b5b80610b3a610b34610b2f89610503565b6102ee565b916102ee565b1015610bd05780610bc68989610bc18a610bb8610b9a610b95610b8d610b88610b83610b7b610b76610bcb9e610b70600661074b565b9b61074e565b61076e565b998c9061074e565b61076e565b6107a3565b9389906105b5565b6105d5565b91610baf610ba66107af565b965f88016107bc565b602086016107d6565b604084016107e4565b61096e565b610592565b610b1f565b5093509350935094610c2a94610be8610bf0926109af565b6080526109af565b60a05260c05260e052610c0b610c0660806109c7565b6109e0565b61010052610c21610c1c60a06109c7565b6109f8565b610120526107a3565b61014052565b50610a58610c3d856104ff565b610c57610c51610c4c8b610503565b6102ee565b916102ee565b149050610a4f565b610c73610c6e610c78926104ba565b6104bd565b61021f565b90565b610c8490610c5f565b90565b610c909061022a565b9052565b9190610ca7905f60208501940190610c87565b565b91610cb391610f33565b80610cce610cc8610cc35f610c7b565b61022a565b9161022a565b14610cde57610cdc90610f81565b565b610d01610cea5f610c7b565b5f918291631e4fbdf760e01b835260048301610c94565b0390fd5b5190565b634e487b7160e01b5f52602260045260245ffd5b9060016002830492168015610d3d575b6020831014610d3857565b610d09565b91607f1691610d2d565b5f5260205f2090565b601f602091010490565b91906008610d75910291610d6f5f198461096a565b9261096a565b9181191691161790565b9190610d95610d90610d9d936108cc565b6104dc565b908354610d5a565b9055565b5f90565b610db791610db1610da1565b91610d7f565b565b5b818110610dc5575050565b80610dd25f600193610da5565b01610dba565b9190601f8111610de8575b505050565b610df4610e1993610d47565b906020610e0084610d50565b83019310610e21575b610e1290610d50565b0190610db9565b5f8080610de3565b9150610e1281929050610e09565b1c90565b90610e43905f1990600802610e2f565b191690565b81610e5291610e33565b906002021790565b90610e6481610d05565b9060018060401b038211610f2257610e8682610e808554610d1d565b85610dd8565b602090601f8311600114610eba57918091610ea9935f92610eae575b5050610e48565b90555b565b90915001515f80610ea2565b601f19831691610ec985610d47565b925f5b818110610f0a57509160029391856001969410610ef0575b50505002019055610eac565b610f00910151601f841690610e33565b90555f8080610ee4565b91936020600181928787015181550195019201610ecc565b61011b565b90610f3191610e5a565b565b90610f42610f49926003610f27565b6004610f27565b565b5f1c90565b60018060a01b031690565b610f67610f6c91610f4b565b610f50565b90565b610f799054610f5b565b90565b5f0190565b610f8b6005610f6f565b610f96826005610870565b90610fca610fc47f8be0079c531659141344cd1fd0a4f28419497f9722a3daafe3b4186f6b6457e093610861565b91610861565b91610fd3610107565b80610fdd81610f7c565b0390a356fe60806040526004361015610018575b361561001657005b005b6100225f35610201565b80630126c606146101fc57806306fdde03146101f7578063095ea7b3146101f257806312261ee7146101ed57806316345f18146101e857806318160ddd146101e35780631bca2cbd146101de5780631f8a4dd4146101d957806323b872dd146101d457806327c13f86146101cf5780632e1a7d4d146101ca578063313ce567146101c55780634df630ef146101c05780634f64b2be146101bb57806355c45697146101b657806360a46673146101b157806370a08231146101ac578063715018a6146101a75780638da5cb5b146101a257806395d89b411461019d578063a9059cbb14610198578063af7665ce14610193578063b6b55f251461018e578063ca267a4414610189578063cc42010b14610184578063dd62ed3e1461017f578063e51c94fb1461017a578063eb23ed0814610175578063f2fde38b146101705763f887ea400361000e576110d5565b611044565b61100f565b610fda565b610fa4565b610f42565b610f0c565b610e93565b610e5e565b610def565b610dba565b610d85565b610d3d565b610d08565b610cb4565b610c53565b610a12565b61087f565b61081a565b6107dc565b610784565b61074e565b6106df565b6106a3565b610584565b61054e565b610486565b6103d3565b6102e9565b610249565b60e01c90565b60405190565b5f80fd5b5f80fd5b5f91031261021f57565b610211565b90565b61023090610224565b9052565b9190610247905f60208501940190610227565b565b3461027957610259366004610215565b6102756102646111cb565b61026c610207565b91829182610234565b0390f35b61020d565b5190565b60209181520190565b90825f9392825e0152565b601f801991011690565b6102bf6102c86020936102cd936102b68161027e565b93848093610282565b9586910161028b565b610296565b0190565b6102e69160208201915f8184039101526102a0565b90565b34610319576102f9366004610215565b61031561030461134b565b61030c610207565b918291826102d1565b0390f35b61020d565b5f80fd5b60018060a01b031690565b61033690610322565b90565b6103428161032d565b0361034957565b5f80fd5b9050359061035a82610339565b565b61036581610224565b0361036c57565b5f80fd5b9050359061037d8261035c565b565b91906040838203126103a7578061039b6103a4925f860161034d565b93602001610370565b90565b610211565b151590565b6103ba906103ac565b9052565b91906103d1905f602085019401906103b1565b565b34610404576104006103ef6103e936600461037f565b90611365565b6103f7610207565b918291826103be565b0390f35b61020d565b7f000000000000000000000000000000000000000000000000000000000000000090565b90565b61044461043f61044992610322565b61042d565b610322565b90565b61045590610430565b90565b6104619061044c565b90565b61046d90610458565b9052565b9190610484905f60208501940190610464565b565b346104b657610496366004610215565b6104b26104a1610409565b6104a9610207565b91829182610471565b0390f35b61020d565b6104c49061032d565b90565b6104d0816104bb565b036104d757565b5f80fd5b905035906104e8826104c7565b565b9060208282031261050357610500915f016104db565b90565b610211565b90565b61051490610508565b9052565b60ff1690565b61052790610518565b9052565b91602061054c92949361054560408201965f83019061050b565b019061051e565b565b3461057f576105666105613660046104ea565b61152e565b9061057b610572610207565b9283928361052b565b0390f35b61020d565b346105b457610594366004610215565b6105b061059f61165d565b6105a7610207565b91829182610234565b0390f35b61020d565b62ffffff1690565b6105ca816105b9565b036105d157565b5f80fd5b905035906105e2826105c1565b565b6fffffffffffffffffffffffffffffffff1690565b610602816105e4565b0361060957565b5f80fd5b9050359061061a826105f9565b565b610625816103ac565b0361062c57565b5f80fd5b9050359061063d8261061c565b565b909160c08284031261069e57610657835f840161034d565b92610665816020850161034d565b9261067382604083016105d5565b9261069b610684846060850161060d565b93610692816080860161060d565b9360a001610630565b90565b610211565b346106da576106d66106c56106b936600461063f565b94939093929192611eac565b6106cd610207565b91829182610234565b0390f35b61020d565b3461070f576106ef366004610215565b61070b6106fa612bcb565b610702610207565b91829182610234565b0390f35b61020d565b90916060828403126107495761074661072f845f850161034d565b9361073d816020860161034d565b93604001610370565b90565b610211565b3461077f5761077b61076a610764366004610714565b91612be1565b610772610207565b918291826103be565b0390f35b61020d565b346107b457610794366004610215565b6107b061079f612c60565b6107a7610207565b91829182610234565b0390f35b61020d565b906020828203126107d2576107cf915f01610370565b90565b610211565b5f0190565b6107ef6107ea3660046107b9565b6132ae565b6107f7610207565b80610801816107d7565b0390f35b9190610818905f6020850194019061051e565b565b3461084a5761082a366004610215565b610846610835613701565b61083d610207565b91829182610805565b0390f35b61020d565b6108589061032d565b9052565b91602061087d92949361087660408201965f83019061084f565b0190610227565b565b346108b0576108976108923660046107b9565b61384b565b906108ac6108a3610207565b9283928361085c565b0390f35b61020d565b634e487b7160e01b5f52603260045260245ffd5b5490565b5f5260205f2090565b6108df816108c9565b8210156108f9576108f16003916108cd565b910201905f90565b6108b5565b5f1c90565b60018060a01b031690565b61091a61091f916108fe565b610903565b90565b61092c905461090e565b90565b60018060a01b031690565b61094661094b916108fe565b61092f565b90565b610958905461093a565b90565b90565b61096a61096f916108fe565b61095b565b90565b61097c905461095e565b90565b60069061098b826108c9565b8110156109c35761099b916108d6565b506109a75f8201610922565b916109c060026109b96001850161094e565b9301610972565b90565b5f80fd5b6109d09061044c565b90565b6109dc906109c7565b9052565b604090610a09610a1094969593966109ff60608401985f85019061084f565b60208301906109d3565b0190610227565b565b34610a4557610a41610a2d610a283660046107b9565b61097f565b610a38939193610207565b938493846109e0565b0390f35b61020d565b5f80fd5b634e487b7160e01b5f52604160045260245ffd5b90610a6c90610296565b810190811067ffffffffffffffff821117610a8657604052565b610a4e565b90610a9e610a97610207565b9283610a62565b565b67ffffffffffffffff8111610ab85760208091020190565b610a4e565b5f80fd5b90929192610ad6610ad182610aa0565b610a8b565b9381855260208086019202830192818411610b1357915b838310610afa5750505050565b60208091610b08848661034d565b815201920191610aed565b610abd565b9080601f83011215610b3657816020610b3393359101610ac1565b90565b610a4a565b67ffffffffffffffff8111610b535760208091020190565b610a4e565b90929192610b6d610b6882610b3b565b610a8b565b9381855260208086019202830192818411610baa57915b838310610b915750505050565b60208091610b9f8486610370565b815201920191610b84565b610abd565b9080601f83011215610bcd57816020610bca93359101610b58565b90565b610a4a565b91606083830312610c4e575f83013567ffffffffffffffff8111610c495782610bfc918501610b18565b92602081013567ffffffffffffffff8111610c445783610c1d918301610b18565b92604082013567ffffffffffffffff8111610c3f57610c3c9201610baf565b90565b61031e565b61031e565b61031e565b610211565b34610c8257610c6c610c66366004610bd2565b916141aa565b610c74610207565b80610c7e816107d7565b0390f35b61020d565b9190604083820312610caf5780610ca3610cac925f8601610370565b9360200161034d565b90565b610211565b34610ce557610ce1610cd0610cca366004610c87565b906141f7565b610cd8610207565b91829182610234565b0390f35b61020d565b90602082820312610d0357610d00915f0161034d565b90565b610211565b34610d3857610d34610d23610d1e366004610cea565b614346565b610d2b610207565b91829182610234565b0390f35b61020d565b34610d6b57610d4d366004610215565b610d55614389565b610d5d610207565b80610d67816107d7565b0390f35b61020d565b9190610d83905f6020850194019061084f565b565b34610db557610d95366004610215565b610db1610da0614393565b610da8610207565b91829182610d70565b0390f35b61020d565b34610dea57610dca366004610215565b610de6610dd56143a9565b610ddd610207565b918291826102d1565b0390f35b61020d565b34610e2057610e1c610e0b610e0536600461037f565b906143bf565b610e13610207565b918291826103be565b0390f35b61020d565b7f000000000000000000000000000000000000000000000000000000000000000090565b9190610e5c905f602085019401906109d3565b565b34610e8e57610e6e366004610215565b610e8a610e79610e25565b610e81610207565b91829182610e49565b0390f35b61020d565b610ea6610ea13660046107b9565b6145e5565b610eae610207565b80610eb8816107d7565b0390f35b610ec581610518565b03610ecc57565b5f80fd5b90503590610edd82610ebc565b565b9190604083820312610f075780610efb610f04925f8601610370565b93602001610ed0565b90565b610211565b34610f3d57610f39610f28610f22366004610edf565b90614b98565b610f30610207565b91829182610234565b0390f35b61020d565b34610f7257610f6e610f5d610f58366004610cea565b614c2b565b610f65610207565b91829182610234565b0390f35b61020d565b9190604083820312610f9f5780610f93610f9c925f860161034d565b9360200161034d565b90565b610211565b34610fd557610fd1610fc0610fba366004610f77565b90614d96565b610fc8610207565b91829182610234565b0390f35b61020d565b3461100a57610fea366004610215565b611006610ff5614dbe565b610ffd610207565b91829182610234565b0390f35b61020d565b3461103f5761103b61102a611025366004610cea565b614df7565b611032610207565b91829182610234565b0390f35b61020d565b346110725761105c611057366004610cea565b614fad565b611064610207565b8061106e816107d7565b0390f35b61020d565b7f000000000000000000000000000000000000000000000000000000000000000090565b6110a490610430565b90565b6110b09061109b565b90565b6110bc906110a7565b9052565b91906110d3905f602085019401906110b3565b565b34611105576110e5366004610215565b6111016110f0611077565b6110f8610207565b918291826110c0565b0390f35b61020d565b5f90565b90565b61112561112061112a9261110e565b61042d565b610224565b90565b90565b61114461113f6111499261112d565b61042d565b610224565b90565b634e487b7160e01b5f52601160045260245ffd5b61116f61117591939293610224565b92610224565b91611181838202610224565b92818404149015171561119057565b61114c565b634e487b7160e01b5f52601260045260245ffd5b6111b56111bb91610224565b91610224565b9081156111c6570490565b611195565b6111d361110a565b506111dc61165d565b806111ef6111e95f611111565b91610224565b146112225761121f9061121a611203612c60565b611214670de0b6b3a7640000611130565b90611160565b6111a9565b90565b5061122c5f611111565b90565b606090565b634e487b7160e01b5f52602260045260245ffd5b9060016002830492168015611268575b602083101461126357565b611234565b91607f1691611258565b60209181520190565b5f5260205f2090565b905f929180549061129e61129783611248565b8094611272565b916001811690815f146112f557506001146112b9575b505050565b6112c6919293945061127b565b915f925b8184106112dd57505001905f80806112b4565b600181602092959395548486015201910192906112ca565b92949550505060ff19168252151560200201905f80806112b4565b9061131a91611284565b90565b9061133d6113369261132d610207565b93848092611310565b0383610a62565b565b6113489061131d565b90565b61135361122f565b5061135e600361133f565b90565b5f90565b61138291611371611361565b5061137a614fb8565b919091614fc5565b600190565b5f90565b5f90565b5f80fd5b60e01b90565b69ffffffffffffffffffff1690565b6113b181611399565b036113b857565b5f80fd5b905051906113c9826113a8565b565b6113d481610508565b036113db57565b5f80fd5b905051906113ec826113cb565b565b905051906113fb8261035c565b565b919060a08382031261144e57611415815f85016113bc565b9261142382602083016113df565b9261144b61143484604085016113ee565b9361144281606086016113ee565b936080016113bc565b90565b610211565b61145b610207565b3d5f823e3d90fd5b9050519061147082610ebc565b565b9060208282031261148b57611488915f01611463565b90565b610211565b6114a461149f6114a99261110e565b61042d565b610508565b90565b5f7f496e76616c696420707269636500000000000000000000000000000000000000910152565b6114e0600d602092610282565b6114e9816114ac565b0190565b6115029060208101905f8183039101526114d3565b90565b1561150c57565b611514610207565b62461bcd60e51b81528061152a600482016114ed565b0390fd5b90611537611387565b5061154061138b565b5061156560a061154f846109c7565b63feaf968c9061155d610207565b938492611393565b82528180611575600482016107d7565b03915afa80156116585761159a6020916115b0935f80929050611627575b50946109c7565b63313ce567906115a8610207565b938492611393565b825281806115c0600482016107d7565b03915afa908115611622575f916115f4575b50916115f0816115ea6115e45f611490565b91610508565b13611505565b9190565b611615915060203d811161161b575b61160d8183610a62565b810190611472565b5f6115d2565b503d611603565b611453565b611648915060a03d8111611651575b6116408183610a62565b8101906113fd565b50505090611593565b503d611636565b611453565b61166561110a565b506116706002610972565b90565b61167c90610430565b90565b61169361168e6116989261110e565b61042d565b610322565b90565b6116a49061167f565b90565b6116b09061044c565b90565b6116bc90610430565b90565b6116c8906116b3565b90565b6116d560a0610a8b565b90565b906116e29061032d565b9052565b906116f0906105b9565b9052565b90565b60020b90565b61171161170c611716926116f4565b61042d565b6116f7565b90565b90611723906116f7565b9052565b6117309061032d565b90565b9061173d90611727565b9052565b90565b61175861175361175d92611741565b61042d565b610224565b90565b61176a6010611744565b90565b61178161177c61178692610224565b61042d565b610518565b90565b60f81b90565b61179890611789565b90565b6117a76117ac91610518565b61178f565b9052565b6117bc8160019361179b565b0190565b90565b6117d76117d26117dc926117c0565b61042d565b610224565b90565b67ffffffffffffffff81116117f75760208091020190565b610a4e565b9061180e611809836117df565b610a8b565b918252565b606090565b5f5b82811061182657505050565b602090611831611813565b818401520161181a565b90611860611848836117fc565b9260208061185686936117df565b9201910390611818565b565b90565b61187961187461187e92611862565b61042d565b610224565b90565b61188b6006611865565b90565b90565b6118a56118a06118aa9261188e565b61042d565b610224565b90565b6118b7600c611891565b90565b90565b6118d16118cc6118d6926118ba565b61042d565b610224565b90565b6118e3600f6118bd565b90565b6001939261190585836118fd829561190d9761179b565b01809261179b565b01809261179b565b0190565b90565b61192861192361192d92611911565b61042d565b610224565b90565b67ffffffffffffffff811161194e5761194a602091610296565b0190565b610a4e565b9061196561196083611930565b610a8b565b918252565b6119735f611953565b90565b61197e61196a565b90565b61198b60a0610a8b565b90565b52565b9061199b906103ac565b9052565b906119a9906105e4565b9052565b52565b6119b9906116a7565b9052565b6119c6906105b9565b9052565b6119d3906116f7565b9052565b6119e09061044c565b90565b6119ec906119d7565b9052565b90608080611a4893611a085f8201515f8601906119b0565b611a1a602082015160208601906119b0565b611a2c604082015160408601906119bd565b611a3e606082015160608601906119ca565b01519101906119e3565b565b611a53906103ac565b9052565b611a60906105e4565b9052565b5190565b60209181520190565b611a90611a99602093611a9e93611a8781611a64565b93848093611a68565b9586910161028b565b610296565b0190565b611b05916080610120820192611abe5f8201515f8501906119f0565b611ad0602082015160a0850190611a4a565b611ae2604082015160c0850190611a57565b611af4606082015160e0850190611a57565b015190610100818403910152611a71565b90565b611b1d9160208201915f818403910152611aa2565b90565b5190565b90611b2e82611b20565b811015611b3f576020809102010190565b6108b5565b611b4e905161032d565b90565b611b5a906116a7565b9052565b611b67906105e4565b9052565b916020611b8c929493611b8560408201965f830190611b51565b0190611b5e565b565b90565b611ba5611ba0611baa92611b8e565b61042d565b610224565b90565b60209181520190565b611bd5611bde602093611be393611bcc81611a64565b93848093611bad565b9586910161028b565b610296565b0190565b60209181520190565b60200190565b90611c0091611a71565b90565b60200190565b90611c1d611c1683611b20565b8092611be7565b9081611c2e60208302840194611bf0565b925f915b838310611c4157505050505090565b90919293946020611c63611c5d83856001950387528951611bf6565b97611c03565b9301930191939290611c32565b9091611c8a611c989360408401908482035f860152611bb6565b916020818403910152611c09565b90565b611ca490610430565b90565b611cb090611c9b565b90565b611cbc9061044c565b90565b611cc89061044c565b90565b90602082820312611ce457611ce1915f016113ee565b90565b610211565b90505190611cf68261061c565b565b90602082820312611d1157611d0e915f01611ce9565b90565b610211565b611d1f9061044c565b90565b5f910312611d2c57565b610211565b611d45611d40611d4a926105e4565b61042d565b610322565b90565b611d5690611d31565b9052565b65ffffffffffff1690565b611d6e90611d5a565b9052565b611da7611dae94611d9d606094989795611d93608086019a5f87019061084f565b602085019061084f565b6040830190611d4d565b0190611d65565b565b939290611ddf611de793611dd160409360608901908982035f8b0152611bb6565b908782036020890152611c09565b940190610227565b565b611dfd611df8611e02926105e4565b61042d565b610224565b90565b611e14611e1a91939293610224565b92610224565b8203918211611e2557565b61114c565b5f7f496e73756666696369656e74206f757470757420616d6f756e74000000000000910152565b611e5e601a602092610282565b611e6781611e2a565b0190565b611e809060208101905f818303910152611e51565b90565b15611e8a57565b611e92610207565b62461bcd60e51b815280611ea860048201611e6b565b0390fd5b939290611eb761110a565b50611fa0611ec486611673565b611ecd83611673565b9087611ee9611ee3611ede5f61169b565b61032d565b9161032d565b14612bbc575b83611f0a611f04611eff5f61169b565b61032d565b9161032d565b14612ba2575b611f1d611f239192610322565b91610322565b1193845f14612b9957611f36835b6116a7565b92855f14612b8a5750611f97611f8e611f4f895b6116a7565b92611f89603c91611f80611f625f6116bf565b96611f77611f6e6116cb565b9a5f8c016116d8565b60208a016116d8565b604088016116e6565b6116fd565b60608501611719565b60808301611733565b94825f14612b8557611fb290156103ac565b5b90611fde611fed611fca611fc5611760565b61176d565b611fd2610207565b928391602083016117b0565b60208201810382520382610a62565b9161223b8761221661200761200260016117c3565b61183b565b936121ee61201b612016611881565b61176d565b61206561202e6120296118ad565b61176d565b9161205661204261203d6118d9565b61176d565b61204a610207565b948593602085016118e6565b60208201810382520382610a62565b9161211c6120e86120f78d6120d48c6120cb6120896120846003611914565b61183b565b9b936120c289936120b961209b611976565b956120b06120a7611981565b995f8b0161198e565b60208901611991565b6040870161199f565b6060850161199f565b608083016119ad565b6120dc610207565b92839160208301611b08565b60208201810382520382610a62565b61211687915f9061211061210a83611111565b85611b24565b52611111565b90611b24565b5150805f14612b705761219b8d6121345f8201611b44565b5b925f14612b605760206121489101611b44565b5b916121758a9161216661215a610207565b93849260208401611b6b565b60208201810382520382610a62565b612195879160019061218f612189836117c3565b85611b24565b526117c3565b90611b24565b51506121c88b916121b96121ad610207565b93849260208401611b6b565b60208201810382520382610a62565b6121e885916002906121e26121dc83611b91565b85611b24565b52611b91565b90611b24565b51506122076121fb610207565b93849260208401611c70565b60208201810382520382610a62565b61223583915f9061222f61222983611111565b85611b24565b52611111565b90611b24565b5150835f14612a7f576122696122525f8901611b44565b61226361225e5f61169b565b6116a7565b90614fd5565b5f146129da5761227830611cbf565b315b5b9561228f61228a5f8a01611b44565b6116a7565b6122a96122a361229e5f61169b565b61032d565b9161032d565b0361282c575b6122c36122be60208a01611b44565b6116a7565b6122dd6122d76122d25f61169b565b61032d565b9161032d565b0361267c575b6122fd6122f76122f25f61169b565b61032d565b9161032d565b145f146125ca5761232d7f0000000000000000000000000000000000000000000000000000000000000000611d16565b9161233f633593564c91939193611de9565b9391934290823b156125c5575f946123736123689361235c610207565b98899788968795611393565b855260048501611db0565b03925af180156125c057612594575b505b5f146124a3576123af6123985f8501611b44565b6123a96123a45f61169b565b6116a7565b90614fd5565b5f146123f6576123f392506123ee6123c630611cbf565b315b5b916123e76123e16123db858790611e05565b92611de9565b91610224565b1015611e83565b611e05565b90565b602061241e61241961241461240f5f6124509801611b44565b6116a7565b611ca7565b611cb3565b6370a082319061244561243030611cbf565b92612439610207565b97889485938493611393565b835260048301610d70565b03915afa92831561249e576123f3936123ee915f91612470575b506123c8565b612491915060203d8111612497575b6124898183610a62565b810190611ccb565b5f61246a565b503d61247f565b611453565b6124c96124b260208501611b44565b6124c36124be5f61169b565b6116a7565b90614fd5565b5f146124e7576123f392506123ee6124e030611cbf565b315b6123c9565b602061250f61250a612505612500846125419801611b44565b6116a7565b611ca7565b611cb3565b6370a082319061253661252130611cbf565b9261252a610207565b97889485938493611393565b835260048301610d70565b03915afa92831561258f576123f3936123ee915f91612561575b506124e2565b612582915060203d8111612588575b61257a8183610a62565b810190611ccb565b5f61255b565b503d612570565b611453565b6125b3905f3d81116125b9575b6125ab8183610a62565b810190611d22565b5f612382565b503d6125a1565b611453565b61138f565b9190506125f67f0000000000000000000000000000000000000000000000000000000000000000611d16565b91633593564c9190924292813b15612677575f61262691612631829661261a610207565b98899788968795611393565b855260048501611db0565b03925af1801561267257612646575b50612384565b612665905f3d811161266b575b61265d8183610a62565b810190611d22565b5f612640565b503d612653565b611453565b61138f565b6126a061269b61269661269160208c01611b44565b6116a7565b611ca7565b611cb3565b602063095ea7b3916126d17f0000000000000000000000000000000000000000000000000000000000000000610458565b906126f05f8019956126fb6126e4610207565b97889687958694611393565b84526004840161085c565b03925af18015612827576127fb575b506127347f0000000000000000000000000000000000000000000000000000000000000000610458565b6387517c4561274d61274860208c01611b44565b6116a7565b6127767f0000000000000000000000000000000000000000000000000000000000000000611d16565b928665ffffffffffff823b156127f6575f946127b086926127a594612799610207565b998a9889978896611393565b865260048601611d72565b03925af180156127f1576127c5575b506122e3565b6127e4905f3d81116127ea575b6127dc8183610a62565b810190611d22565b5f6127bf565b503d6127d2565b611453565b61138f565b61281b9060203d8111612820575b6128138183610a62565b810190611cf8565b61270a565b503d612809565b611453565b61284f61284a6128456128405f8c01611b44565b6116a7565b611ca7565b611cb3565b602063095ea7b3916128807f0000000000000000000000000000000000000000000000000000000000000000610458565b9061289f5f8019956128aa612893610207565b97889687958694611393565b84526004840161085c565b03925af180156129d5576129a9575b506128e37f0000000000000000000000000000000000000000000000000000000000000000610458565b6387517c456128fb6128f65f8c01611b44565b6116a7565b6129247f0000000000000000000000000000000000000000000000000000000000000000611d16565b928665ffffffffffff823b156129a4575f9461295e869261295394612947610207565b998a9889978896611393565b865260048601611d72565b03925af1801561299f57612973575b506122af565b612992905f3d8111612998575b61298a8183610a62565b810190611d22565b5f61296d565b503d612980565b611453565b61138f565b6129c99060203d81116129ce575b6129c18183610a62565b810190611cf8565b6128b9565b503d6129b7565b611453565b612a346020612a026129fd6129f86129f35f8d01611b44565b6116a7565b611ca7565b611cb3565b6370a0823190612a29612a1430611cbf565b92612a1d610207565b95869485938493611393565b835260048301610d70565b03915afa908115612a7a575f91612a4c575b5061227a565b612a6d915060203d8111612a73575b612a658183610a62565b810190611ccb565b5f612a46565b503d612a5b565b611453565b612aa5612a8e60208901611b44565b612a9f612a9a5f61169b565b6116a7565b90614fd5565b5f14612abb57612ab430611cbf565b315b61227b565b612b156020612ae3612ade612ad9612ad4848d01611b44565b6116a7565b611ca7565b611cb3565b6370a0823190612b0a612af530611cbf565b92612afe610207565b95869485938493611393565b835260048301610d70565b03915afa908115612b5b575f91612b2d575b50612ab6565b612b4e915060203d8111612b54575b612b468183610a62565b810190611ccb565b5f612b27565b503d612b3c565b611453565b5f612b6b9101611b44565b612149565b61219b8d612b8060208201611b44565b612135565b611fb3565b611f8e611f4f611f9792611f4a565b611f3687611f31565b9050611f23611f1d612bb35f61167f565b92915050611f10565b50612bc65f61167f565b611eef565b612bd361110a565b50612bde60066108c9565b90565b91612c0b92612bee611361565b50612c03612bfa614fb8565b82908491615045565b9190916150d1565b600190565b6001612c1c9101610224565b90565b612c33612c2e612c3892610508565b61042d565b610224565b90565b612c4a612c5091939293610224565b92610224565b8201809211612c5b57565b61114c565b612c6861110a565b50612c725f611111565b612c7b5f611111565b905b81612c99612c93612c8e60066108c9565b610224565b91610224565b1015612da757612cb65f612caf600685906108d6565b5001610922565b612cbf81614c2b565b9081612cd3612ccd5f611111565b91610224565b11612cec575b505090612ce6905b612c10565b90612c7d565b612d06612d00612cfb5f61169b565b61032d565b9161032d565b1480612d86575b612d7b57612ce691612d6e612d57612d7493612d51612d4c612d45612d406001612d3960068d906108d6565b500161094e565b61152e565b9190612c1f565b614b98565b90611160565b612d68670de0b6b3a7640000611130565b906111a9565b90612c3b565b905f612cd9565b5090612ce690612ce1565b50612d8f61165d565b612da1612d9b5f611111565b91610224565b14612d0d565b905090565b5f7f496e76616c696420616d6f756e74000000000000000000000000000000000000910152565b612de0600e602092610282565b612de981612dac565b0190565b612e029060208101905f818303910152612dd3565b90565b15612e0c57565b612e14610207565b62461bcd60e51b815280612e2a60048201612ded565b0390fd5b612e3790610430565b90565b612e4390612e2e565b90565b612e4f9061044c565b90565b5f7f4e4156206d7573742062652067726561746572207468616e207a65726f000000910152565b612e86601d602092610282565b612e8f81612e52565b0190565b612ea89060208101905f818303910152612e79565b90565b15612eb257565b612eba610207565b62461bcd60e51b815280612ed060048201612e93565b0390fd5b60207f68616e207a65726f000000000000000000000000000000000000000000000000917f53686172657320746f206275726e206d757374206265206772656174657220745f8201520152565b612f2e6028604092610282565b612f3781612ed4565b0190565b612f509060208101905f818303910152612f21565b90565b15612f5a57565b612f62610207565b62461bcd60e51b815280612f7860048201612f3b565b0390fd5b5f7f496e73756666696369656e742073686172657300000000000000000000000000910152565b612fb06013602092610282565b612fb981612f7c565b0190565b612fd29060208101905f818303910152612fa3565b90565b15612fdc57565b612fe4610207565b62461bcd60e51b815280612ffa60048201612fbd565b0390fd5b90565b61301561301061301a92612ffe565b61042d565b610224565b90565b60207f616e636500000000000000000000000000000000000000000000000000000000917f5661756c742068617320696e73756666696369656e7420746f6b656e2062616c5f8201520152565b6130776024604092610282565b6130808161301d565b0190565b6130999060208101905f81830391015261306a565b90565b156130a357565b6130ab610207565b62461bcd60e51b8152806130c160048201613084565b0390fd5b90565b6130dc6130d76130e1926130c5565b61042d565b6105b9565b90565b6130ef610bb86130c8565b90565b61310661310161310b92610224565b61042d565b6105e4565b90565b61312261311d6131279261110e565b61042d565b6105e4565b90565b5f1b90565b9061313b5f199161312a565b9181191691161790565b61315961315461315e92610224565b61042d565b610224565b90565b90565b9061317961317461318092613145565b613161565b825461312f565b9055565b60207f7468616e207a65726f0000000000000000000000000000000000000000000000917f5472616e7366657220616d6f756e74206d7573742062652067726561746572205f8201520152565b6131de6029604092610282565b6131e781613184565b0190565b6132009060208101905f8183039101526131d1565b90565b1561320a57565b613212610207565b62461bcd60e51b815280613228600482016131eb565b0390fd5b5f7f55534443207472616e73666572206661696c6564000000000000000000000000910152565b6132606014602092610282565b6132698161322c565b0190565b6132829060208101905f818303910152613253565b90565b1561328c57565b613294610207565b62461bcd60e51b8152806132aa6004820161326d565b0390fd5b613317906132ce816132c86132c25f611111565b91610224565b11612e05565b60206133016132fc7f0000000000000000000000000000000000000000000000000000000000000000612e3a565b612e46565b63313ce5679061330f610207565b948592611393565b82528180613327600482016107d7565b03915afa80156136dd57613343925f916136af575b5090614b98565b61338a61334e6111cb565b61336a8161336461335e5f611111565b91610224565b11612eab565b6133858361337f670de0b6b3a7640000611130565b90611160565b6111a9565b906133a7826133a161339b5f611111565b91610224565b11612f53565b6133cc826133c56133bf6133ba33614346565b610224565b91610224565b1115612fd5565b6133d55f611111565b6133de5f611111565b905b816133fc6133f66133f160066108c9565b610224565b91610224565b10156135865761356e9061341d5f613416600686906108d6565b5001610922565b9061345261344261343c6002613435600689906108d6565b5001610972565b87611160565b61344c6064613001565b906111a9565b84836134866134807f000000000000000000000000000000000000000000000000000000000000000061032d565b9161032d565b14155f1461357457926134f46134ed613561936134e86134d06134cb6134c46134bf60016134b86135679d60066108d6565b500161094e565b61152e565b9190612c1f565b614b98565b916134e2670de0b6b3a7640000611130565b90611160565b6111a9565b82906141f7565b9061351a61350182614c2b565b61351361350d85610224565b91610224565b101561309c565b7f00000000000000000000000000000000000000000000000000000000000000009161354d6135476130e4565b916130f2565b905f9361355b60019561310e565b93611eac565b90612c3b565b915b612c10565b906133e0565b50613580925090612c3b565b91613569565b92905061359491503361516e565b61359d33614346565b6135af6135a95f611111565b91610224565b14613684575b6135d1816135cb6135c55f611111565b91610224565b11613203565b60206136046135ff7f0000000000000000000000000000000000000000000000000000000000000000611ca7565b611cb3565b9163a9059cbb926136295f33939561363461361d610207565b97889687958694611393565b84526004840161085c565b03925af1801561367f5761364f915f91613651575b50613285565b565b613672915060203d8111613678575b61366a8183610a62565b810190611cf8565b5f613649565b503d613660565b611453565b6136aa6136a361369460016117c3565b61369e6007610972565b611e05565b6007613164565b6135b5565b6136d0915060203d81116136d6575b6136c88183610a62565b810190611472565b5f61333c565b503d6136be565b611453565b90565b6136f96136f46136fe926136e2565b61042d565b610518565b90565b61370961138b565b5061371460126136e5565b90565b5f90565b5f7f496e646578206f7574206f6620626f756e647300000000000000000000000000910152565b61374f6013602092610282565b6137588161371b565b0190565b6137719060208101905f818303910152613742565b90565b1561377b57565b613783610207565b62461bcd60e51b8152806137996004820161375c565b0390fd5b906137a79061032d565b9052565b906137b5906104bb565b9052565b906137c390610224565b9052565b6137d16060610a8b565b90565b9061382361381a60026137e56137c7565b946137fc6137f45f8301610922565b5f880161379d565b61381461380b6001830161094e565b602088016137ab565b01610972565b604084016137b9565b565b61382e906137d4565b90565b61383b905161032d565b90565b6138489051610224565b90565b6138906138969161385a613717565b5061386361110a565b506138898161388361387d61387860066108c9565b610224565b91610224565b10613774565b60066108d6565b50613825565b906138ae60406138a75f8501613831565b930161383e565b90565b906138c492916138bf6151cd565b613d70565b565b5190565b5190565b5f7f417272617973206d757374206265206f6620657175616c206c656e6774680000910152565b613902601e602092610282565b61390b816138ce565b0190565b6139249060208101905f8183039101526138f5565b90565b1561392e57565b613936610207565b62461bcd60e51b81528061394c6004820161390f565b0390fd5b9061395a826138ca565b81101561396b576020809102010190565b6108b5565b5f7f576569676874206d75737420626520706f736974697665000000000000000000910152565b6139a46017602092610282565b6139ad81613970565b0190565b6139c69060208101905f818303910152613997565b90565b156139d057565b6139d8610207565b62461bcd60e51b8152806139ee600482016139b1565b0390fd5b6139fc6064613001565b90565b5f7f546f74616c2077656967687473206d7573742073756d20746f20313030000000910152565b613a33601d602092610282565b613a3c816139ff565b0190565b613a559060208101905f818303910152613a26565b90565b15613a5f57565b613a67610207565b62461bcd60e51b815280613a7d60048201613a40565b0390fd5b613a8c906003611160565b90565b1b90565b91906008613aae910291613aa85f1984613a8f565b92613a8f565b9181191691161790565b9190613ace613ac9613ad693613145565b613161565b908354613a93565b9055565b613aec91613ae661110a565b91613ab8565b565b5f6002613b0692828082015582600182015501613ada565b565b634e487b7160e01b5f525f60045260245ffd5b905f03613b2d57613b2b90613aee565b565b613b08565b5b818110613b3e575050565b80613b4b5f600393613b1b565b01613b33565b9091828110613b60575b505050565b613b7e613b78613b72613b8995613a81565b92613a81565b926108cd565b918201910190613b32565b5f8080613b5b565b90680100000000000000008111613bba5781613baf613bb8936108c9565b90828155613b51565b565b610a4e565b5f613bc991613b91565b565b905f03613bdd57613bdb90613bbf565b565b613b08565b90565b90613bef826138c6565b811015613c00576020809102010190565b6108b5565b613c0e90610430565b90565b613c1a90613c05565b90565b613c276060610a8b565b90565b5f5260205f2090565b5490565b613c4081613c33565b821015613c5a57613c52600391613c2a565b910201905f90565b6108b5565b90613c7060018060a01b039161312a565b9181191691161790565b90565b90613c92613c8d613c99926116a7565b613c7a565b8254613c5f565b9055565b613ca790516104bb565b90565b613cb390613c05565b90565b90565b90613cce613cc9613cd592613caa565b613cb6565b8254613c5f565b9055565b90613d1d60406002613d2394613cfc5f8201613cf65f8801613831565b90613c7d565b613d1560018201613d0f60208801613c9d565b90613cb9565b01920161383e565b90613164565b565b9190613d3657613d3491613cd9565b565b613b08565b9081549168010000000000000000831015613d6b5782613d63916001613d6995018155613c37565b90613d25565b565b610a4e565b919091613d7c816138c6565b613d96613d90613d8b866138c6565b610224565b91610224565b148061417b575b613da690613927565b613daf5f611111565b93613db95f611111565b945b85613dd6613dd0613dcb876138ca565b610224565b91610224565b1015613e3657613e2a613e3091613e11613df9613df4888b90613950565b61383e565b613e0b613e055f611111565b91610224565b116139c9565b613e24613e1f878a90613950565b61383e565b90612c3b565b95612c10565b94613dbb565b613e5e919394929550613e58613e52613e4d6139f2565b610224565b91610224565b14613a58565b613e675f611111565b5b80613e84613e7e613e7960066108c9565b610224565b91610224565b1015613f7357613ef690613ea55f613e9e600684906108d6565b5001610922565b613eae81614c2b565b9080613ee2613edc7f000000000000000000000000000000000000000000000000000000000000000061032d565b9161032d565b141580613f59575b613efb575b5050612c10565b613e68565b613f09613f519282906141f7565b907f000000000000000000000000000000000000000000000000000000000000000091613f3d613f376130e4565b916130f2565b905f93613f4b60019561310e565b93611eac565b505f80613eef565b5081613f6d613f675f611111565b91610224565b11613eea565b509091613f815f6006613bcb565b613f8a5f611111565b5b80613fa6613fa0613f9b886138c6565b610224565b91610224565b101561403b5761403690614031613fbd6006613be2565b613fd0613fcb898590613be5565b613831565b9061402c613fef613fea613fe58a8890613be5565b613831565b613c11565b6140236140056140008a8990613950565b61383e565b9161401a614011613c1d565b965f880161379d565b602086016137ab565b604084016137b9565b613d3b565b612c10565b613f8b565b50905061404730611cbf565b31926140525f611111565b5b8061406e614068614063856138c6565b610224565b91610224565b1015614174576141019061408b614086848390613be5565b613831565b6140ba6140aa6140a461409f888690613950565b61383e565b89611160565b6140b46064613001565b906111a9565b816140ed6140e77f000000000000000000000000000000000000000000000000000000000000000061032d565b9161032d565b14158061415a575b614106575b5050612c10565b614053565b614152917f0000000000000000000000000000000000000000000000000000000000000000909161413e6141386130e4565b916130f2565b905f9361414c60019561310e565b93611eac565b505f806140fa565b508061416e6141685f611111565b91610224565b116140f5565b5050509050565b50613da6614188846138c6565b6141a261419c614197866138ca565b610224565b91610224565b149050613d9d565b906141b592916138b1565b565b6141c36141c991610518565b91610518565b90039060ff82116141d657565b61114c565b6141e490610518565b604d81116141f257600a0a90565b61114c565b9061420061110a565b508061421c6142166142115f61169b565b61032d565b9161032d565b1461432c57602061423761423261424d93612e3a565b612e46565b63313ce56790614245610207565b938492611393565b8252818061425d600482016107d7565b03915afa908115614327575f916142f9575b508061428461427e60126136e5565b91610518565b105f146142b3576142aa6142a56142b093926142a060126136e5565b6141b7565b6141db565b906111a9565b90565b806142c76142c160126136e5565b91610518565b116142d0575090565b6142f06142eb6142f693926142e560126136e5565b906141b7565b6141db565b90611160565b90565b61431a915060203d8111614320575b6143128183610a62565b810190611472565b5f61426f565b503d614308565b611453565b5090565b9061433a906116a7565b5f5260205260405f2090565b61435c6143619161435561110a565b505f614330565b610972565b90565b61436c6151cd565b614374614376565b565b6143876143825f61169b565b61521b565b565b614391614364565b565b61439b613717565b506143a66005610922565b90565b6143b161122f565b506143bc600461133f565b90565b6143dc916143cb611361565b506143d4614fb8565b9190916150d1565b600190565b60409061440a614411949695939661440060608401985f85019061084f565b602083019061084f565b0190610227565b565b5f7f5472616e73666572206661696c65642100000000000000000000000000000000910152565b6144476010602092610282565b61445081614413565b0190565b6144699060208101905f81830391015261443a565b90565b1561447357565b61447b610207565b62461bcd60e51b81528061449160048201614454565b0390fd5b60207f207a65726f000000000000000000000000000000000000000000000000000000917f546f6b656e207072696365206d7573742062652067726561746572207468616e5f8201520152565b6144ef6025604092610282565b6144f881614495565b0190565b6145119060208101905f8183039101526144e2565b90565b1561451b57565b614523610207565b62461bcd60e51b815280614539600482016144fc565b0390fd5b60207f68616e207a65726f000000000000000000000000000000000000000000000000917f53686172657320746f206d696e74206d757374206265206772656174657220745f8201520152565b6145976028604092610282565b6145a08161453d565b0190565b6145b99060208101905f81830391015261458a565b90565b156145c357565b6145cb610207565b62461bcd60e51b8152806145e1600482016145a4565b0390fd5b90614602826145fc6145f65f611111565b91610224565b11612e05565b61460a612c60565b9161463c6146377f0000000000000000000000000000000000000000000000000000000000000000611ca7565b611cb3565b9060206323b872dd92339061466d5f61465430611cbf565b9661467887614661610207565b998a9788968795611393565b8552600485016143e1565b03925af1918215614b93576146e192614698915f91614b65575b5061446c565b60206146cb6146c67f0000000000000000000000000000000000000000000000000000000000000000612e3a565b612e46565b63313ce567906146d9610207565b948592611393565b825281806146f1600482016107d7565b03915afa8015614b605761470d925f91614b32575b5090614b98565b6147156111cb565b9161471f5f611111565b936147295f611111565b945b8561474761474161473c60066108c9565b610224565b91610224565b10156149f7576147645f61475d600689906108d6565b5001610922565b61477c600261477560068a906108d6565b5001610972565b6147c76147d76147a161479c60016147958d60066108d6565b500161094e565b61152e565b929092936147c1846147bb6147b55f611490565b91610508565b13614514565b89611160565b6147d16064613001565b906111a9565b92838161480c6148067f000000000000000000000000000000000000000000000000000000000000000061032d565b9161032d565b03614863575b505061483a6148579361483461485d969461482f61485195612c1f565b614b98565b90611160565b61484b670de0b6b3a7640000611130565b906111a9565b90612c3b565b95612c10565b9461472b565b6148ed919294506148a061489b6148a5927f0000000000000000000000000000000000000000000000000000000000000000906141f7565b6130f2565b611de9565b7f000000000000000000000000000000000000000000000000000000000000000083916148d96148d36130e4565b916130f2565b905f936148e760019561310e565b93611eac565b6148f760126136e5565b918061491361490d6149085f61169b565b61032d565b9161032d565b03614946575b506148579361483461485d969461482f6149396148519661483a96614b98565b9750509496505091614812565b61497891959394925061496261495d602092612e3a565b612e46565b63313ce56790614970610207565b938492611393565b82528180614988600482016107d7565b03915afa9182156149f2576148346148579561482f61493961485d996148519761483a975f916149c4575b509750955050509496505093614919565b6149e5915060203d81116149eb575b6149dd8183610a62565b810190611472565b5f6149b3565b503d6149d3565b611453565b925092909350614a065f611111565b5b80614a23614a1d614a1860066108c9565b610224565b91610224565b1015614a4557614a4090614a39600682906108d6565b5050612c10565b614a07565b50614ac292614a5261110a565b50614a5b61165d565b614a6d614a675f611111565b91610224565b14908115614b17575b505f14614aef57505b614a9b81614a95614a8f5f611111565b91610224565b116145bc565b614aa433614346565b614ab6614ab05f611111565b91610224565b14614ac4575b3361527c565b565b614aea614ae3614ad460016117c3565b614ade6007610972565b612c3b565b6007613164565b614abc565b614b0d614b1292614b07670de0b6b3a7640000611130565b90611160565b6111a9565b614a7f565b9050614b2b614b255f611111565b91610224565b145f614a76565b614b53915060203d8111614b59575b614b4b8183610a62565b810190611472565b5f614706565b503d614b41565b611453565b614b86915060203d8111614b8c575b614b7e8183610a62565b810190611cf8565b5f614692565b503d614b74565b611453565b90614ba161110a565b5080614bb6614bb060126136e5565b91610518565b105f14614be557614bdc614bd7614be29392614bd260126136e5565b6141b7565b6141db565b90611160565b90565b80614bf9614bf360126136e5565b91610518565b11614c02575090565b614c22614c1d614c289392614c1760126136e5565b906141b7565b6141db565b906111a9565b90565b614c3361110a565b5080614c4f614c49614c445f61169b565b61032d565b9161032d565b14614d7257806020614c6b614c66614c9d94611ca7565b611cb3565b6370a0823190614c92614c7d30611cbf565b92614c86610207565b96879485938493611393565b835260048301610d70565b03915afa918215614d6d57614cc8614cc3614cde946020935f91614d40575b5093612e3a565b612e46565b63313ce56790614cd6610207565b948592611393565b82528180614cee600482016107d7565b03915afa8015614d3b57614d0a925f91614d0d575b5090614b98565b90565b614d2e915060203d8111614d34575b614d268183610a62565b810190611472565b5f614d03565b503d614d1c565b611453565b614d609150843d8111614d66575b614d588183610a62565b810190611ccb565b5f614cbc565b503d614d4e565b611453565b50614d7c30611cbf565b3190565b90614d8a906116a7565b5f5260205260405f2090565b614dbb91614db1614db692614da961110a565b506001614d80565b614330565b610972565b90565b614dc661110a565b50614dd16007610972565b90565b916020614df5929493614dee60408201965f83019061084f565b019061084f565b565b614dff61110a565b50614e11614e0c82611ca7565b611cb3565b90602063dd62ed3e92614e2330611cbf565b90614e68614e507f0000000000000000000000000000000000000000000000000000000000000000611d16565b95614e73614e5c610207565b97889586948594611393565b845260048401614dd4565b03915afa918215614f4357614e9e614e99614eb4946020935f91614f16575b5093612e3a565b612e46565b63313ce56790614eac610207565b948592611393565b82528180614ec4600482016107d7565b03915afa8015614f1157614ee0925f91614ee3575b5090614b98565b90565b614f04915060203d8111614f0a575b614efc8183610a62565b810190611472565b5f614ed9565b503d614ef2565b611453565b614f369150843d8111614f3c575b614f2e8183610a62565b810190611ccb565b5f614e92565b503d614f24565b611453565b614f5990614f546151cd565b614f5b565b565b80614f76614f70614f6b5f61169b565b61032d565b9161032d565b14614f8657614f849061521b565b565b614fa9614f925f61169b565b5f918291631e4fbdf760e01b835260048301610d70565b0390fd5b614fb690614f48565b565b614fc0613717565b503390565b91614fd392916001926152da565b565b614ffb614ff6614ff061500193614fea611361565b506116a7565b936116a7565b61032d565b9161032d565b1490565b60409061502e615035949695939661502460608401985f85019061084f565b6020830190610227565b0190610227565b565b906150429103610224565b90565b929192615053818390614d96565b90816150686150625f19610224565b91610224565b03615075575b5050509050565b8161508861508287610224565b91610224565b106150ae576150a5939461509d919392615037565b905f926152da565b805f808061506e565b506150cd849291925f938493637dc7a0d960e11b855260048501615005565b0390fd5b91826150ed6150e76150e25f61169b565b61032d565b9161032d565b14615147578161510d6151076151025f61169b565b61032d565b9161032d565b146151205761511e929190916153f7565b565b61514361512c5f61169b565b5f91829163ec442f0560e01b835260048301610d70565b0390fd5b61516a6151535f61169b565b5f918291634b637e8f60e11b835260048301610d70565b0390fd5b908161518a61518461517f5f61169b565b61032d565b9161032d565b146151a6576151a4919061519d5f61169b565b90916153f7565b565b6151c96151b25f61169b565b5f918291634b637e8f60e11b835260048301610d70565b0390fd5b6151d5614393565b6151ee6151e86151e3614fb8565b61032d565b9161032d565b036151f557565b615217615200614fb8565b5f91829163118cdaa760e01b835260048301610d70565b0390fd5b6152256005610922565b615230826005613c7d565b9061526461525e7f8be0079c531659141344cd1fd0a4f28419497f9722a3daafe3b4186f6b6457e0936116a7565b916116a7565b9161526d610207565b80615277816107d7565b0390a3565b8061529761529161528c5f61169b565b61032d565b9161032d565b146152b3576152b1916152a95f61169b565b9190916153f7565b565b6152d66152bf5f61169b565b5f91829163ec442f0560e01b835260048301610d70565b0390fd5b9092816152f76152f16152ec5f61169b565b61032d565b9161032d565b146153c2578361531761531161530c5f61169b565b61032d565b9161032d565b1461539b5761533b8361533661532f60018690614d80565b8790614330565b613164565b615345575b505050565b91909161539061537e6153787f8c5be1e5ebec7d5bd14f71427d1e84f3dd0314c0f7b2291e5b200ac8c7c3b925936116a7565b936116a7565b93615387610207565b91829182610234565b0390a35f8080615340565b6153be6153a75f61169b565b5f918291634a1406b160e11b835260048301610d70565b0390fd5b6153e56153ce5f61169b565b5f91829163e602df0560e01b835260048301610d70565b0390fd5b906153f49101610224565b90565b9190918061541561540f61540a5f61169b565b61032d565b9161032d565b145f146154f6576154396154328361542d6002610972565b612c3b565b6002613164565b5b8261545561544f61544a5f61169b565b61032d565b9161032d565b145f146154ca576154796154728361546d6002610972565b615037565b6002613164565b5b9190916154c56154b36154ad7fddf252ad1be2c89b69c2b068fc378daa952ba7f163c4a11628f55a4df523b3ef936116a7565b936116a7565b936154bc610207565b91829182610234565b0390a3565b6154f1826154eb6154dc5f8790614330565b916154e683610972565b6153e9565b90613164565b61547a565b6155096155045f8390614330565b610972565b8061551c61551685610224565b91610224565b106155445761552f61553f918490615037565b61553a5f8490614330565b613164565b61543a565b906155629091925f93849363391434e360e21b855260048501615005565b0390fdfea2646970667358221220e7a07fe9c27f730b2cb1762110b6831f68565b2ee9cca2d500e724659c9a855564736f6c634300081a0033","linkReferences":{}},"methodIdentifiers":{"allowance(address,address)":"dd62ed3e","approve(address,uint256)":"095ea7b3","balanceOf(address)":"70a08231","calculateMarketCap()":"27c13f86","convertInputTo18Decimals(uint256,uint8)":"ca267a44","convertInputToTokenDecimals(uint256,address)":"60a46673","decimals()":"313ce567","deposit(uint256)":"b6b55f25","ethPriceFeed()":"af7665ce","getErc20Allowance(address)":"eb23ed08","getErc20Balance(address)":"cc42010b","getLatestPrice(address)":"16345f18","getNAV()":"0126c606","getNumberOfInvestors()":"e51c94fb","getTokenDistributionCount()":"1f8a4dd4","getTokenDistributionData(uint256)":"4df630ef","name()":"06fdde03","owner()":"8da5cb5b","permit2()":"12261ee7","renounceOwnership()":"715018a6","router()":"f887ea40","swapExactInputSingle(address,address,uint24,uint128,uint128,bool)":"1bca2cbd","symbol()":"95d89b41","tokens(uint256)":"4f64b2be","totalSupply()":"18160ddd","transfer(address,uint256)":"a9059cbb","transferFrom(address,address,uint256)":"23b872dd","transferOwnership(address)":"f2fde38b","updateAssetsAndWeights(address[],address[],uint256[])":"55c45697","withdraw(uint256)":"2e1a7d4d"},"id":129}